:100000000C94F4000C941C010C941C010C941C0125
:100010000C941C010C941C010C941C010C941C01EC
:100020000C941C010C941C010C94E5030C945704D3
:100030000C941C010C941C010C941C010C941C01CC
:100040000C941C010C941C010C941C010C941C01BC
:100050000C941C010C94BD070C941C010C94140C02
:100060000C941C010C941C010C941C010C941C019C
:100070000C941C010C941C010C941C010C941C018C
:100080000C941C010C941C010C941C010C941C017C
:100090000C941C010C941C010C941C010C941C016C
:1000A0000C941C010C941C010C941C0197099A09D6
:1000B00089098D099309BB09BB09BB099E09A209DE
:1000C000A609AC09B009BB09B6093F00312E302E94
:1000D00031310021303142422D3430300021303175
:1000E00000213031003F303100080B0002020201D4
:1000F00000090400000102020000052400100105AF
:1001000024010101042402060524060001070581DB
:100110000310004009040100020A00000007050264
:100120000240000007058302400000040309041296
:10013000010002EF02014041233780000101020368
:100140000141726475696E6F204C4C4300417264CA
:1001500075696E6F204D6963726F000000000024A6
:100160000027002A002D0030000000000025002894
:10017000002B002E00310000000000230026002983
:10018000002C002F000404040404030405020202EE
:100190000204030202020206060606060604040220
:1001A0000202040404080201104080401020408034
:1001B00040800802040180402010020110801020BD
:1001C0004040200000000200090F0000030401006D
:1001D0000C00000000000000000000000000000013
:1001E00000003E00FE12F61211241FBECFEFDAE02F
:1001F000DEBFCDBF23E0A6EBB1E001C01D92A93365
:10020000B207E1F711E0A0E0B1E0EAE5F4E302C0F3
:1002100005900D92A63BB107D9F710E0C3EFD0E0EF
:1002200004C02197FE010E945D15C23FD107C9F7A6
:100230000E94850C0C94201A0C94000008954091A3
:10024000BE015091BF012091BC013091BD01421708
:100250005307B4F49091E8009570E1F39091E800B1
:1002600092FD19C08093F1008091BE019091BF0171
:1002700001968F739927892B19F48EEF8093E800EC
:100280008091BE019091BF0101969093BF01809330
:10029000BE0181E0089580E00895DF92EF92FF9221
:1002A0000F931F93CF93DF93D82EF92EE42E062FB2
:1002B00010E0C8010196880F0E941F0183E00E9490
:1002C0001F01CD2DDF2D0C0F1D1FC017D10789F089
:1002D000E7FE03C0FE01849101C088810E941F01D6
:1002E000F82E80E00E941F018F2121968111EDCF11
:1002F00001C081E0DF91CF911F910F91FF90EF90AE
:10030000DF900895DF92EF92FF920F931F93CF93A8
:10031000DF93D82E8A017B01E40EF51EEB01CE158A
:10032000DF0571F0D7FE03C0FE01849101C0888112
:100330000E941F0121968111F2CF8FEF9FEF01C024
:10034000C801DF91CF911F910F91FF90EF90DF9047
:100350000895615030F02091F100FC012083019656
:10036000F8CF289A84E68093C2010895CF92DF9255
:10037000EF92FF920F931F93CF93DF936C017A015B
:100380008B01C0E0D0E0CE15DF0581F0D8016D9182
:100390008D01D601ED91FC910190F081E02DC60117
:1003A0000995892B11F02196EECF7E01C701DF91CF
:1003B000CF911F910F91FF90EF90DF90CF90089514
:1003C000CF93DF931F92CDB7DEB76983DC01ED9148
:1003D000FC910280F381E02D41E050E0BE016F5FAF
:1003E0007F4F09950F90DF91CF91089583E080931F
:1003F000E9008091F200882319F08AE38093E800F5
:100400000895FC018485958597FD0BC09FB7F894EE
:1004100082E08093E9008091F2009FBF90E0019616
:1004200008959FB7F89482E08093E9008091F200EC
:100430009FBF90E0089580E090E008950E944A17E1
:100440000F931F93CF93DF931F92CDB7DEB782E058
:10045000898342E450E069EE70E080E80E94820106
:100460000E94140BDC0112960D911C91139701153B
:10047000110589F0D801ED91FC910280F381E02D06
:10048000BE016F5F7F4FC801099597FD04C0F80159
:1004900000851185ECCF89810F90DF91CF911F915D
:1004A0000F9108958F929F92AF92BF92CF92DF9259
:1004B000EF92FF920F931F93CF93DF936C017B0119
:1004C0008A0180910B01882309F45CC08091C301EB
:1004D000882309F457C08091B60180FF05C0809140
:1004E000E00082608093E000E801B12C8AEFA82E42
:1004F00093E0892E2AE3922E209711F4BB20D9F1A4
:100500000E94030B81110AC0AA94AA20D9F161E0CC
:1005100070E080E090E00E94CE0BEECF282F30E01C
:10052000C217D3070CF48C2F9FB7F8948092E90080
:100530002091E80025FF1DC0282F30E0C21BD30BFF
:10054000F701815020F041914093F100FACFE20E83
:10055000F31EBB2019F09092E8000AC08091E800D9
:1005600085FD07C09092E800BB24B394209709F062
:10057000B12C9FBFC1CF5D9A84E68093C101101654
:10058000110644F081E090E0F6019383828380E0DD
:1005900090E001C0C801DF91CF911F910F91FF90B2
:1005A000EF90DF90CF90BF90AF909F908F90089585
:1005B0000E94030B90E008950F931F93CF93DF9356
:1005C0001F92CDB7DEB78C01FC018485958597FF1E
:1005D0000EC0CE0101960E94D50A019719F48981B7
:1005E00090E002C08FEF9FEFF80195878487F801B4
:1005F000848595850F90DF91CF911F910F9108957C
:10060000CF93DF931F92CDB7DEB7FC01848595852C
:1006100097FD05C02FEF3FEF358724870BC0CE0134
:1006200001960E94D50A019719F4898190E002C0D1
:100630008FEF9FEF0F90DF91CF910895862F642F5A
:100640000C94920BFC0181850E94280B21E0892BE0
:1006500009F420E0822F08950C946814FC01248191
:1006600035816217730748F480819181009729F0E2
:10067000FC01E60FF71F8081089580E008950F9335
:100680001F93CF93DF938C01EB01FC01808191815B
:10069000009739F06881798161157105A1F40E9494
:1006A000FB1588819981F801918380838A819B81E0
:1006B000938382838C819D819583848319821882A0
:1006C0001B821A820FC0F801428153812C813D8127
:1006D0004217530720F30E9458178C819D81F8011F
:1006E000958384831D821C82DF91CF911F910F918E
:1006F00008950F931F93CF93DF93EC018881998125
:10070000009729F02A813B812617370788F48B014F
:100710006F5F7F4F0E948416009761F099838883F2
:100720001B830A832C813D81232B11F4FC01108251
:1007300081E001C080E0DF91CF911F910F9108957A
:10074000EF92FF920F931F93CF93DF93EC017B0106
:100750008A01BA010E9479032881398181110DC073
:100760002115310519F0C9010E94FB151982188263
:100770001D821C821B821A8206C01D830C83B70156
:10078000C9010E945817CE01DF91CF911F910F919F
:10079000FF90EF900895FC01808191810C94FB15EE
:1007A000FC0111821082138212821582148261155B
:1007B000710551F0FB0101900020E9F73197AF017D
:1007C000461B570B0C94A00308951F920F920FB66F
:1007D0000F9211248F939F938091E1009091E100FB
:1007E000937F9093E10083FF0FC01092E90091E0A6
:1007F0009093EB001092EC0092E39093ED00109236
:10080000C30198E09093F00082FF20C093E09093A2
:10081000E9009091F200992319F09AE39093E8008F
:100820009091C101992339F09091C1019150909319
:10083000C101992389F19091C201992339F09091D6
:10084000C20191509093C201992341F184FF10C0DD
:100850008091E2008E7E81608093E2008091E100D1
:100860008F7E8093E1008091B6018E7E806111C001
:1008700080FF16C08091E2008E7E80618093E2004E
:100880008091E1008E7E8093E1008091B6018E7EA2
:1008900081608093B60104C05D98CDCF2898D6CFF3
:1008A0009F918F910F900FBE0F901F9018951F92E0
:1008B0000F920FB60F921124CF92DF92EF92FF9218
:1008C0000F931F932F933F934F935F936F937F9358
:1008D0008F939F93AF93BF93EF93FF93CF93DF9348
:1008E000CDB7DEB76C97DEBFCDBF1092E900809127
:1008F000E80083FFFBC168E0CE0145960E94A90194
:1009000082EF8093E8008D8987FF05C09091E80011
:1009100090FFFCCF03C09EEF9093E800982F907655
:1009200009F0C6C09E894F89588D2F89F88C911186
:100930000CC0803829F48091B7018093F10002C087
:100940001092F1001092F10045C1913051F48111E3
:1009500041C14130510509F03DC18091B7018D7F02
:100960000BC0933061F4811135C14130510509F05C
:1009700031C18091B70182608093B7012BC195305E
:1009800049F48091E80080FFFCCF822F806880933B
:10099000E30020C1963009F05EC00B8D1C8D22E073
:1009A0001092E9001092BF011092BE01F21232C003
:1009B0001092BD011092BC010E94200299E0BE017C
:1009C0006F5F7F4FDB01E92F1D92EA95E9F799836D
:1009D000FA8291E09E8390EA98879AEF9987209116
:1009E000BE013091BF01275F3F4F3C832B838D8336
:1009F0001092E9001092BF011092BE011093BD0148
:100A00000093BC0149E050E080E00E9482010E9416
:100A10002002E0C01093BD010093BC010E94140BA2
:100A2000DC0112960D911C9113970115110509F423
:100A3000BBC0D801ED91FC910480F581E02DBE0191
:100A40006B5E7F4FC8010995009709F0C7C0F80198
:100A500000851185EACF973009F445C1983021F41B
:100A600081E08093F100B6C0993009F0B3C0837083
:100A700009F039C1E3E3F1E081E031E096E3208160
:100A8000211109C08EE78093EA001092EA008F8955
:100A90008093C3019FC08093E9003093EB002191C4
:100AA0002093EC009093ED008F5F873041F7EACF01
:100AB0008B8D9C8D1092E9001092BF011092BE01A7
:100AC0009093BD018093BC01898D811153C08E89A3
:100AD0009D89913A49F4813209F005C147E050E01F
:100AE00064E071E080E0BBC0913209F0FCC0833269
:100AF00069F48F89988DA0E0B0E080930001909315
:100B00000101A0930201B093030164C0803269F433
:100B10008091E80082FFFCCF67E084E091E00E94D2
:100B2000A9018BEF8093E80055C0823209F052C0D2
:100B30008F8980930B01EEEFFFE7859194918B3FB6
:100B40009C4D19F0E0E0F8E002C0EEEFFAE0809191
:100B5000040190910501A0910601B0910701803B2D
:100B60009440A105B10509F09EC080910B0180FF62
:100B700079C099C00E94140BFC01028113810115F8
:100B8000110509F4B0C0D801ED91FC910190F081FC
:100B9000E02DBE016B5E7F4FC801099581111AC01F
:100BA000F80100851185EBCFF1E0FF1609F44EC086
:100BB000F3E0FF1298C08F89882309F44AC082307D
:100BC00089F440E86DE08DE491E00E944D018823B6
:100BD00009F489C08EEF8093E80088C018161906C2
:100BE000CCF381C0813029F440E86BE081E491E0EE
:100BF000ECCF833009F077C00E94140BDC01129611
:100C0000ED90FC9013978E010F5F1F4F6801E11468
:100C1000F10479F0D701ED91FC910680F781E02D88
:100C2000B801C7010995080F111DF701E084F1848F
:100C3000EECFD8011C92F60101900020E9F7319720
:100C4000BF016C197D0940E0C601BFCF6FE271E0C2
:100C500002C06BE271E0FB01449150E080E80E9429
:100C60008201B8CFEE3F2AE0F20751F080819181F6
:100C70008737A7E79A0721F09093FF0A8093FE0A2F
:100C800087E797E791838083809160008093C0011C
:100C90009BE088E10FB6F894A895809360000FBEA2
:100CA0009093600097CF808191818737974709F0B3
:100CB00091CFA895809160008861809360008091B9
:100CC000C00180936000EE3FBAE0FB0739F08091ED
:100CD000FE0A9091FF0A918380837CCF1092FF0AD5
:100CE0001092FE0A77CF81E28093EB006C960FB6EC
:100CF000F894DEBF0FBECDBFDF91CF91FF91EF9192
:100D0000BF91AF919F918F917F916F915F914F9123
:100D10003F912F911F910F91FF90EF90DF90CF9017
:100D20000F900FBE0F901F9018951F93CF93DF93D6
:100D3000EC01162F0E946814181739F0612FCE01AC
:100D4000DF91CF911F910C947014DF91CF911F917F
:100D5000089585EE90E00C94200A81EE90E00C94CA
:100D6000200A8DED90E00C94050ACF92DF92EF926D
:100D7000FF920F931F93CF93DF9300D000D000D04A
:100D8000CDB7DEB782E190E00E942C038095807A97
:100D9000C82E8093B80183E190E00E942C039DEF60
:100DA000980F983008F08AE08093B90104E112E0CE
:100DB00084E1E82EF12C81E0C11001C080E0F8014F
:100DC000878BC7010E942C03D82EC70101960E9471
:100DD0002C036D2D70E0782B60957095F801748B65
:100DE000638B6115710519F41486138615C080E0B4
:100DF00090E00E946D1320E030E04AE75FE30E943C
:100E0000AA1320E030E040E85FE30E94B6140E949D
:100E10002215F80174876387005E1F4FF2E0EF0E22
:100E2000F11C84E2E816F10431F665EB71E0CE01C5
:100E300001960E94D003BE016F5F7F4F84E193E073
:100E40000E943F03CE0101960E94CB036AE070E04E
:100E500084E193E00E94790308E010E0C8010E9459
:100E60002C0390EE980F9F35C0F08091180390915D
:100E70001903892BE1F566E871E0CE0101960E9425
:100E8000D003BE016F5F7F4F84E193E00E943F0378
:100E9000CE0101960E94CB032AC089831A82E0907A
:100EA0001803F0901903EFEFEE1AFE0AB70184E180
:100EB00093E00E947903882399F0209114033091E4
:100EC00015038091180390911903BE016F5F7F4F46
:100ED000820F931F0E945817F0921903E092180393
:100EE0000F5F1F4F0231110509F0B8CFBECF269614
:100EF0000FB6F894DEBF0FBECDBFDF91CF911F912B
:100F00000F91FF90EF90DF90CF900895FC01662342
:100F100039F0808D811104C08081828F81E0878FBC
:100F2000608F662311F061E001C060E083810C9462
:100F3000630BEF92FF920F931F93CF93DF9304E124
:100F400012E0C0E0D0E0E82EF12CB7010C2E02C078
:100F5000759567950A94E2F76170C8010E9486074B
:100F60002196005E1F4FC830D10579F7DF91CF91F0
:100F70001F910F91FF90EF9008951F920F920FB65F
:100F80000F9211242F923F924F925F927F928F92F5
:100F90009F92AF92BF92CF92DF92EF92FF920F9308
:100FA0001F932F933F934F935F936F937F938F93F1
:100FB0009F93AF93BF93EF93FF93CF93DF93CDB7FF
:100FC000DEB7CF57D109DEBFCDBF8091BB018F5FA8
:100FD0008093BB0124E1E22E22E0F22E34E1A32E25
:100FE00033E0B32E8701C12CDD24D39442E0942E4C
:100FF00054E6852ED8011D968C911D978B7F1D96EA
:101000008C93C80105960E942203782EF8018585ED
:1010100086958170781681F00E94080CD801179689
:101020006D937D938D939C931A971D968C911D972C
:1010300089251D968C9331C00E94080CF8012781E8
:101040003085418552851B012C01221A330A440A3E
:10105000550A83859485A0E0B0E0281639064A0633
:101060005B06D8F0858581707816B9F00E94080C6F
:10107000D80117966D937D938D939C931A971D9627
:101080008C911D978D2584601D968C930E94080C71
:10109000F8016787708B818B928BD8011D968C919C
:1010A0001D9757962C91982F9170222321F08570CF
:1010B0008530B1F405C0911113C082FF26C015C060
:1010C000D8015B964D915D916D917C915E974F5FDC
:1010D0005F4F6F4F7F4FF801438F548F658F768F2F
:1010E000992399F0F801D58A13C0D8015B964D91E8
:1010F0005D916D917C915E974F5F5F4F6F4F7F4F1A
:10110000F801438F548F658F768FD8015696DC9205
:10111000F801818D891711F0918FD78ED8015A96D9
:101120008C915A97882321F081505A968C930AC04B
:10113000F801808D882331F081810E94280B892B52
:1011400009F0AFC08091BB01682D0E94511591112B
:101150000AC0D8015F968C915F97882321F05F9633
:101160001C92CC24C394005E1F4FB3E004311B07D4
:1011700009F040CFCC2009F499C094E1C92E92E047
:10118000D92E00E010E0000F111FF601808D8111B3
:101190001160C6010E94510B81110160F0E2CF0E77
:1011A000D11CAC14BD0479F76E0180E6C80ED11CC9
:1011B0009601205E3F4FF60190916E0080916E0087
:1011C0008D7F80936E00D7015B964D915D916D91FF
:1011D0007C915E9790936E00D6014D935D936D93D5
:1011E0007D936D01B0E2EB0EF11CC216D30621F720
:1011F000878D8F93868D8F93858D8F93848D8F931D
:10120000838D8F93828D8F93818D8F93808D8F931C
:1012100087898F9386898F9385898F9384898F930C
:1012200083898F9382898F9381898F9380898F930C
:1012300087858F9386858F9385858F9384858F93FC
:1012400083858F9382858F9381858F9380858F93FC
:1012500087818F9386818F9385818F9384818F93EC
:1012600083818F9382818F9381818F9380818F93EC
:101270001F930F938DE891E09F938F931F928FE5BB
:101280008F938E010F5F1F4F1F930F930E945F1765
:101290000FB6F894DEBF0FBECDBFC8010E94E909AA
:1012A00005C060E0C8010E9486074CCFC158DF4FDF
:1012B0000FB6F894DEBF0FBECDBFDF91CF91FF9187
:1012C000EF91BF91AF919F918F917F916F915F91BE
:1012D0004F913F912F911F910F91FF90EF90DF90D1
:1012E000CF90BF90AF909F908F907F905F904F90E6
:1012F0003F902F900F900FBE0F901F90189590E089
:10130000FC013197EF30F105B0F5EA5AFF4F0C942C
:101310005D15809180008F7703C0809180008F7D64
:1013200080938000089580918000877FF9CF84B5F5
:101330008F7702C084B58F7D84BD08958091900021
:101340008F7707C0809190008F7D03C080919000BF
:10135000877F8093900008958091C0008F7703C0AD
:101360008091C0008F7D8093C00008958091C2005D
:10137000877F8093C20008953FB7F894809125033A
:1013800090912603A0912703B091280326B5A89B2E
:1013900005C02F3F19F00196A11DB11D3FBFBA2F07
:1013A000A92F982F8827820F911DA11DB11DBC0167
:1013B000CD0142E0660F771F881F991F4A95D1F72C
:1013C000089542E050E063EB71E084EC91E00C940E
:1013D0005202CF93DF93009779F0FC010190002037
:1013E000E9F73197AF01481B590BBC0184EC91E040
:1013F0000E945202EC0102C0C0E0D0E00E94E1096C
:101400008C0F9D1FDF91CF9108950F931F93CF9362
:10141000DF938C01C0E0D0E0F801EC0FFD1F649178
:10142000662341F084EC91E00E94E001892B11F0E9
:101430002196F2CFCE01DF91CF911F910F910895A8
:10144000CF93DF930E94050AEC010E94E1098C0F03
:101450009D1FDF91CF910895CF92DF92EF92FF927F
:101460000F931F93CF93DF936C01FC01E480F58011
:10147000EB018B01040F151FC017D1078CF4CE159B
:10148000DF0574F4BE01C6010E942E0390ED980F93
:101490009A3020F08F7D8154863020F42196ECCF55
:1014A00081E001C080E0DF91CF911F910F91FF900B
:1014B000EF90DF90CF9008954F925F926F927F925E
:1014C0008F929F92AF92BF92CF92DF92EF92FF9254
:1014D0000F931F93CF93DF937C01FC01C480D580D1
:1014E000EB01412C512C32018B01040F151FC01749
:1014F000D1077CF5CC15DD0564F5BE01C7010E945E
:101500002E0320ED280F94E0440C551C661C771C1C
:101510009A95D1F7082E000C990B2A3068F44C01EB
:10152000F0E38F1A9108092C000CAA08BB08482880
:1015300059286A287B280BC0C7978F709927AC0160
:10154000990F660B770B442A552A662A772A21962B
:10155000CECFC301B201DF91CF911F910F91FF90C8
:10156000EF90DF90CF90BF90AF909F908F907F9043
:101570006F905F904F900895FC011182108213824A
:10158000128215821482F3E08A319F0769F060911C
:101590001A0370911B036115710531F040911E0310
:1015A00050911F030C94A00308952091C3012111B1
:1015B00003C08FEF9FEF08955FB7F89422E0209368
:1015C000E9002091F20030E01216130614F421E035
:1015D00030E0422FFC0184E6415038F0289A809395
:1015E000C2019091F1009193F7CF2115310521F0BF
:1015F0008091F200882319F05FBFC90108958BE63E
:101600008093E800F9CF2FB7F89483E08093E90046
:101610009091E800892F807295FF04C09091F200AC
:1016200080E4891B2FBF089580912D0381110DC087
:1016300082E08093290384E080932A0310922C0394
:1016400010922B0381E080932D0389E293E00895AB
:10165000CF93DF93282F30E0F901ED53FE4F8491B3
:10166000F901EC55FE4FD491F901EB57FE4FC491AF
:10167000CC2391F081110E947F09EC2FF0E0EE0F56
:10168000FF1FE958FE4FA591B491EC91ED2381E045
:1016900090E021F480E002C080E090E0DF91CF9103
:1016A0000895FC0123893489232B41F481810E9410
:1016B000280B21E0892B29F420E003C0FC012585BB
:1016C0002170822F08951F93CF93DF93282F30E04E
:1016D000F901ED53FE4F8491F901EC55FE4FD49181
:1016E000F901EB57FE4FC491CC23C1F0162F8111A5
:1016F0000E947F09EC2FF0E0EE0FFF1FE759FE4F2D
:10170000A591B4919FB7F894111104C08C91D09514
:10171000D82302C0EC91DE2BDC939FBFDF91CF91E9
:101720001F910895CF93DF9390E0FC01EC55FE4F9D
:101730002491FC01EB57FE4F8491882361F190E0E6
:10174000880F991FFC01E55AFE4FC591D491FC0109
:10175000E759FE4FA591B491611109C09FB7F89464
:101760008881209582238883EC912E230BC06230E0
:1017700061F49FB7F8948881322F30958323888352
:10178000EC912E2B2C939FBF06C08FB7F894E88165
:101790002E2B28838FBFDF91CF9108958F929F9238
:1017A000AF92BF92CF92DF92EF92FF926B017C01DA
:1017B0000E94BC094B015C01C114D104E104F10495
:1017C000F1F00E94BC09DC01CB0188199909AA0932
:1017D000BB09883E9340A105B10570F321E0C21A10
:1017E000D108E108F10888EE880E83E0981EA11C5C
:1017F000B11CC114D104E104F10419F7DDCFFF904D
:10180000EF90DF90CF90BF90AF909F908F90089512
:101810002FB7F894609121037091220380912303E4
:10182000909124032FBF08951F920F920FB60F922D
:1018300011242F933F938F939F93AF93BF938091E6
:10184000210390912203A0912303B09124033091AE
:10185000200323E0230F2D3720F40196A11DB11D95
:1018600005C026E8230F0296A11DB11D2093200379
:101870008093210390932203A0932303B093240326
:101880008091250390912603A0912703B09128030E
:101890000196A11DB11D8093250390932603A0936B
:1018A0002703B0932803BF91AF919F918F913F91F0
:1018B0002F910F900FBE0F901F901895CF93DF932D
:1018C00000D000D000D0CDB7DEB7CE0101960E9487
:1018D000BC0A42E050E063E070E0CE0101960E9455
:1018E0005C0A862F0E949907CE0101960E94CB03C5
:1018F00082EE91E00E94200A26960FB6F894DEBF91
:101900000FBECDBFDF91CF910895CF93DF93CDB7B9
:10191000DEB72B970FB6F894DEBF0FBECDBF78941D
:1019200084B5826084BD84B5816084BD85B58260E4
:1019300085BD85B5816085BD80916E008160809395
:101940006E001092810080918100826080938100FE
:10195000809181008160809381008091800081600E
:1019600080938000809191008260809391008091AB
:1019700091008160809391008091900081608093BC
:1019800090008091C10084608093C1008091C1006B
:1019900082608093C1008091C10081608093C1000A
:1019A0008091C30081608093C3008091C0008260F9
:1019B0008093C0008091C20081608093C2008091BA
:1019C0007A00846080937A0080917A0082608093AC
:1019D0007A0080917A00816080937A0080917A0009
:1019E000806880937A001092C3011092B701109220
:1019F000B6018091D70081608093D70080EA809300
:101A0000D80089B5806189BD89B5826089BD09B476
:101A100000FEFDCF61E070E080E090E00E94CE0B20
:101A20008091D8008F7C80618093D8008091E00005
:101A3000807F8093E0008091E1008E7E8093E100C2
:101A40008DE08093E200559A209A5D98289885B79A
:101A5000806885BF85BF85BF32E2E32E31E0F32E7B
:101A600042E1C42E41E0D42E04E112E0F70180816E
:101A70009181F2E0EF0EF11CF8018183928360E026
:101A80000E94920BF801818186871586C801059610
:101A90000E942203882321F0F801858583608587D1
:101AA0000E94080CF8016783708781879287838979
:101AB000948994878387F60180819181F2E0CF0E2B
:101AC000D11CF8018383948360E00E94630B61E082
:101AD000F80183810E94920BF801108E128E178EEE
:101AE000005E1F4FF2E3EF16F1E0FF0609F0BECFF4
:101AF00080E00E9499070E94B5068FEA87BD809119
:101B00006E00826080936E008FEF9FEF9093D10103
:101B10008093D00165EB71E08E010F5F1F4FC8010C
:101B20000E94D003B8018AE193E00E943F03C801FC
:101B30000E94CB0369E270E08AE193E00E9479039E
:101B400094EF292E91E0392E2DE5422E21E0522EE0
:101B500088E0C82E84EC91E00E940102892B09F4F0
:101B6000AFC084EC91E00E940003D82E2DE08213D8
:101B700005C08091BA018A3091F507C03AE083131D
:101B800007C08091BA018D3051F51092BA0198C00A
:101B900048E0841719F05FE785131BC020911E03EE
:101BA00030911F03121613060CF088C0C90101976B
:101BB0008217930708F082C020911A0330911B030B
:101BC00090931F0380931E03F901E80FF91F108201
:101BD00075C08AE1D8123FC065EB71E046C0E09065
:101BE0001E03F0901F0393E0E916F10400F161E099
:101BF00070E08AE193E00E942E038033C1F462E03A
:101C000070E08AE193E00E942E03813381F460E06A
:101C100070E08AE193E00E942E038B3209F058C0F5
:101C2000E3E0EE16F10419F4F1E0F093330265EB12
:101C300071E0C8010E94D003B8018AE193E00E94DC
:101C40003F03C8010E94CB0369E270E08AE193E0A0
:101C50000E94790333C0E0901E03F0901F03F9E265
:101C6000EF16F10470F067E771E0C8010E94D0033D
:101C7000B8018AE193E00E943F03C8010E94CB03B0
:101C80001DC0D9821A822FEFE21AF20AB7018AE147
:101C900093E00E947903882389F020911A03309100
:101CA0001B0380911E0390911F03B801820F931FA5
:101CB0000E945817F0921F03E0921E03D092BA01BF
:101CC00040E050E0452B09F445CF0E94000040CF92
:101CD000853209F064C02BE0E216F10499F5C801E1
:101CE0000E94BC0A48E050E063E070E0C8010E9436
:101CF0002C0AF82EC8010E94CB03FF2019F1C8015D
:101D00000E94BC0A42E050E065E070E0C8010E9419
:101D10005C0AE62EC8010E94CB03C8010E94BC0ADF
:101D200042E050E067E070E0C8010E945C0AF62ED5
:101D3000C8010E94CB0330E4E31204C08DEF8F0D85
:101D4000883018F00E94A90672CFF092B901C8013C
:101D50000E94BC0A42E050E069E070E0C8010E94C5
:101D60005C0A607A6093B801C8010E94CB0360915D
:101D7000B80181E0611101C080E0E4E1F2E0878B0D
:101D8000B09643E0E431F407D1F7609582E190E04A
:101D90000E9495066091B90183E190E038C28432D7
:101DA00009F0ACC054E0E516F10461F463E070E0C2
:101DB0008AE193E00E942E038D3409F461C28634D7
:101DC000B9F46FC255E0E516F10491F463E070E0F8
:101DD0008AE193E00E942E038D3409F4C3C363E0CB
:101DE00070E08AE193E00E942E03833409F4C4C3B7
:101DF00080911E0390911F038530910509F056C212
:101E000063E070E08AE193E00E942E038C3411F5C8
:101E100064E070E08AE193E00E942E0390ED980F59
:101E20009230C0F4E9E0F3E090E0990F813311F4CF
:101E3000208101C0218121119160B09749E052E0D9
:101E40004E175F0791F71F929F9383E591E09F9351
:101E50008F9307C263E070E08AE193E00E942E0353
:101E6000833571F564E070E08AE193E00E942E030F
:101E7000813309F067CF6FEF88E090E00E9495060C
:101E80006FEF82E190E00E9495066FEF83E190E0B2
:101E90000E94950684E1E82EF12C6FEFC7010E94A5
:101EA00095066FEFC70101960E94950632E0E30E9A
:101EB000F11C44E2E416F10481F70E94B506A9C1C1
:101EC000823509F03FCF64E070E08AE193E00E9440
:101ED0002E03833509F036CF14BE98E088E10FB6A3
:101EE000F894A895809360000FBE9093600068EE10
:101EF00073E080E090E00E94CE0BFFCF803409F0C9
:101F00005AC053E0E516F10439F5F4EFAF2EF2E0D4
:101F1000BF2EE12CF12CEE0CFF1CF501808D8823E7
:101F200011F06894F0F8C5010E94510B882311F05C
:101F30006894E0F8F0E2AF1AB10824EFA21621E0AD
:101F4000B20649F7FF92EF9245E651E05F934F9357
:101F50001F9286E08F9387C1F5E0EF16F10499F4A4
:101F6000C8010E94BC0A42E050E063E070E0C80192
:101F70000E942C0AF82EC8010E94CB03FF2019F002
:101F80000E945E0C54CE80911E0390911F03079710
:101F900009F0D8CEC8010E94BC0A44E050E063E0DA
:101FA00070E0C8010E942C0AF82EC8010E94CB03E1
:101FB000F110E6CFC7CE833209F0D0C024E0E2169C
:101FC000F10409F077C0C8010E94BC0A41E050E06A
:101FD00063E070E0C8010E942C0AF82EC8010E943C
:101FE000CB03FF2009F466C0C8010E94BC0A41E08F
:101FF00050E063E070E0C8010E945C0AF62EC80160
:102000000E94CB0337E03F1508F49CCE0E94B10636
:102010008091B801EF2DF0E085FF24C030916E0073
:1020200080916E008D7F80936E0075E0EE0FFF1F34
:102030007A95E1F7EC5EFD4F838D948D258D468D6D
:1020400030936E004F932F939F938F934BE651E005
:102050005F934F931F928BE08F931F930F930E9478
:102060005F171FC020916E0080916E008D7F80935E
:102070006E0065E0EE0FFF1F6A95E1F7EC5EFD4F25
:10208000838D948D20936E009F938F9322E731E090
:102090003F932F931F928BE08F931F930F930E9478
:1020A0005F170FB6F894DEBF0FBECDBFC8010E9408
:1020B000E909BDCD80911E0390911F03079709F098
:1020C00041CE63E070E08AE193E00E942E03813309
:1020D00021F08154823008F035CEC8010E94BC0A3C
:1020E00041E050E064E070E0C8010E942C0AF82E44
:1020F000C8010E94CB03FF2009F424CEC8010E942E
:10210000BC0A41E050E064E070E0C8010E945C0A53
:10211000F62EC8010E94CB0397E09F1508F401C179
:1021200063E070E08AE193E00E942E03823409F4B8
:10213000F8C065E070E08AE193E00E942E038033EE
:1021400009F0EFC066E070E08AE193E00E942E03A0
:1021500090ED980F923008F0E4C0D4C08E3709F0AB
:1021600066CDC70105970A9708F0E0C063E070E00C
:102170008AE193E00E942E038F3409F0D7C0712CBE
:1021800054E0A52EB12CB5018AE193E00E942E0304
:1021900090EE980F9F3508F0D5CD9DED980F9330B8
:1021A00008F4D0CD8E3709F4CDCD803211F07724EC
:1021B0007394EFEFAE1ABE0AEA14FB0421F77720FE
:1021C00009F4C0CD65EB71E0C8010E94D003809195
:1021D0001E0390911F038530910508F07DC1B80161
:1021E00084E193E00E943F03C8010E94CB03E12CED
:1021F000F12C80911803909119039701285F3F4FAC
:102200005901E816F90608F49BC160E0C9010E9473
:1022100095060E94AD060BCD823309F45DC086336E
:1022200009F090CDB4EFAB2EB2E0BB2EE12CF12C37
:10223000EE0CFF1CF501808D882311F06894F0F8F6
:10224000C5010E94510B882311F06894E0F8F0E278
:10225000AF1AB1082A143B0459F7FF92EF925F922C
:102260004F921F92CF921F930F930E945F17C80146
:102270000E94E9090FB6F894DEBF0FBECDBFD7CCE0
:102280000E94B10640911803509119036091140304
:102290007091150384EC91E00E9452020E94E109C2
:1022A000C6CC0E94B1068CEC90E03DC0049709F0CA
:1022B00049CD63E070E08AE193E00E942E0383340D
:1022C00009F0AACFE9E0F3E010821182B09732E082
:1022D000E930F307C9F79DCF0E94B1068091B8019C
:1022E0001F928F938091B9011F928F938BE791E09A
:1022F0009F938F931F9287E08F931F930F930E945A
:102300005F17B5CF61E0813309F060E030E2F39E02
:10231000C00111248C5E9D4F0E94860782EE91E0E1
:1023200002C08AEC90E00E94200A81CC4AE0E416C8
:10233000F10409F084C063E070E08AE193E00E9458
:102340002E03883509F07BC064E070E08AE193E0F9
:102350000E942E03833409F072C0C8010E94BC0A97
:1023600045E050E065E070E0C8010E942C0AF82EBC
:10237000C8010E94CB03FF2009F461C0C8010E947C
:10238000BC0A41E050E065E070E0C8010E945C0AD0
:10239000E62EC8010E94CB03C8010E94BC0A44E09B
:1023A00050E066E070E0C8010E945C0A4B015C01ED
:1023B000C8010E94CB0357E05E1508F4C3CCC401EA
:1023C000E1EA8E16EFE09E0608F0BCCCF12C9701F6
:1023D00045E0220F331F4A95E1F7A9014C5E5D4F9E
:1023E0003A01FA01948A838A892B19F41486138698
:1023F00016C0B40180E090E00E946D1320E030E050
:102400004AE75FE30E94AA1320E030E040E85FE380
:102410000E94B6140E942215F30174876387540149
:10242000A094B094FAE0EF0EF11CEE0CFF1C6A2DA4
:10243000C7010E9495066B2DC7010196E8CE8091D9
:102440001E0390911F03069709F07CCC63E070E0B7
:102450008AE193E00E942E03883509F073CC64E092
:1024600070E08AE193E00E942E03833409F06ACC85
:10247000C8010E94BC0A41E050E065E070E0C8017C
:102480000E942C0AF82EC8010E94CB03FF2009F4F9
:1024900059CCC8010E94BC0A41E050E065E070E000
:1024A000C8010E945C0AF62EC8010E94CB0327E0F7
:1024B0002F1508F447CC0E94B10630E2F39EF001DC
:1024C0001124EC5EFD4F84898F9383898F9346E6B8
:1024D00051E05F934F93C5CE8E159F0508F47C01A4
:1024E000E0911A03F0911B03EE0DFF1DB0801082E6
:1024F00060911A0370911B036C5F7F4F61F0FB01C9
:1025000001900020E9F73197AF01461B570BC80136
:102510000E94A0030CC089819A81009711F00E944B
:10252000FB151A8219821E821D821C821B828091D9
:102530001A0390911B03FC01EE0DFF1DB0824FCEDC
:10254000B70184E193E00E942E03682FC5010E9429
:1025500095063FEFE31AF30A4AE0E416F10409F0A6
:1025600048CE57CE64E070E08AE193E00E942E03EB
:10257000803309F034CC37C0C8010E94BC0A41E066
:1025800050E064E070E0C8010E942C0AF82EC801F7
:102590000E94CB03FF2009F42BCCC8010E94BC0A87
:1025A00041E050E064E070E0C8010E945C0AF62E51
:1025B000C8010E94CB0387E08F1508F4C3CB90912C
:1025C0006E0080916E008D7F80936E0020E2F29EFF
:1025D000F0011124EC5EFD4F138E148E158E168EB5
:1025E00090936E0016CE83ED90E09DCE84E193E053
:1025F0000E94CB038AE193E00C94CB030F931F93CB
:10260000CF93DF93CDB7DEB72E970FB6F894DEBF2A
:102610000FBECDBF1092C7011092C60188EE93E0A5
:10262000A0E0B0E08093C8019093C901A093CA01D3
:10263000B093CB018DE391E09093C5018093C401E9
:102640008FEF9FEF9093D1018093D00165EB71E004
:102650008AE193E00E94D00365EB71E084E193E0AE
:102660000E94D003E4E1F2E035E00FE411E06AE01B
:1026700070E04FEF5FEF21E0308316830583178210
:102680001086118612867487638715861686528394
:102690004183148A138A158A168A138E148E158E16
:1026A000168E278B8B859C85AD85BE858787908B05
:1026B000A18BB28B108E118E128EB09683E0E43116
:1026C000F807D1F62E960FB6F894DEBF0FBECDBF39
:1026D000DF91CF911F910F910895E89409C097FB66
:1026E0003EF490958095709561957F4F8F4F9F4FE9
:1026F0009923A9F0F92F96E9BB279395F69587952D
:1027000077956795B795F111F8CFFAF4BB0F11F4EF
:1027100060FF1BC06F5F7F4F8F4F9F4F16C0882396
:1027200011F096E911C0772321F09EE8872F762FCC
:1027300005C0662371F096E8862F70E060E02AF00D
:102740009A95660F771F881FDAF7880F96958795F9
:1027500097F908950E94BD130C942E140E94201422
:1027600038F00E94271420F0952311F00C941714D0
:102770000C941D1411240C9462140E943F1470F3E5
:10278000959FC1F3950F50E0551F629FF001729F16
:10279000BB27F00DB11D639FAA27F00DB11DAA1F25
:1027A000649F6627B00DA11D661F829F2227B00D72
:1027B000A11D621F739FB00DA11D621F839FA00DFD
:1027C000611D221F749F3327A00D611D231F849F4D
:1027D000600D211D822F762F6A2F11249F575040A4
:1027E0009AF0F1F088234AF0EE0FFF1FBB1F661F1F
:1027F000771F881F91505040A9F79E3F510580F0E8
:102800000C9417140C9462145F3FE4F3983ED4F3D5
:10281000869577956795B795F795E7959F5FC1F78B
:10282000FE2B880F911D9695879597F9089597F936
:102830009F6780E870E060E008959FEF80EC089566
:1028400000240A941616170618060906089500248F
:102850000A9412161306140605060895092E039409
:10286000000C11F4882352F0BB0F40F4BF2B11F47D
:1028700060FF04C06F5F7F4F8F4F9F4F089557FDDC
:102880009058440F551F59F05F3F71F04795880FDE
:1028900097FB991F61F09F3F79F087950895121675
:1028A00013061406551FF2CF4695F1DF08C0161621
:1028B00017061806991FF1CF8695710561050894D2
:1028C0000895E894BB2766277727CB0197F90895E9
:1028D000F999FECF92BD81BDF89A992780B50895E8
:1028E000262FF999FECF1FBA92BD81BD20BD0FB62C
:1028F000F894FA9AF99A0FBE019608952F923F9292
:102900004F925F926F927F928F929F92AF92BF92FF
:10291000CF92DF92EF92FF920F931F93CF93DF93AB
:10292000CDB7DEB7CA1BDB0B0FB6F894DEBF0FBE08
:10293000CDBF09942A88398848885F846E847D8455
:102940008C849B84AA84B984C884DF80EE80FD8057
:102950000C811B81AA81B981CE0FD11D0FB6F894CD
:10296000DEBF0FBECDBFED0108955058BB27AA278B
:102970000E94CD140C942E140E94201438F00E9452
:10298000271420F039F49F3F19F426F40C941D14F9
:102990000EF4E095E7FB0C941714E92F0E943F1406
:1029A00058F3BA17620773078407950720F079F484
:1029B000A6F50C9461140EF4E0950B2EBA2FA02D01
:1029C0000B01B90190010C01CA01A0011124FF27DC
:1029D000591B99F0593F50F4503E68F11A16F040D7
:1029E000A22F232F342F4427585FF3CF46953795D6
:1029F0002795A795F0405395C9F77EF41F16BA0B9B
:102A0000620B730B840BBAF09150A1F0FF0FBB1F48
:102A1000661F771F881FC2F70EC0BA0F621F731F91
:102A2000841F48F4879577956795B795F7959E3FEE
:102A300008F0B0CF9395880F08F09927EE0F97957F
:102A4000879508950E94471488F09F5798F0B92FF2
:102A50009927B751B0F0E1F0660F771F881F991FD3
:102A60001AF0BA95C9F714C0B13091F00E94611400
:102A7000B1E008950C946114672F782F8827B85F10
:102A800039F0B93FCCF3869577956795B395D9F72B
:102A90003EF490958095709561957F4F8F4F9F4F35
:102AA0000895991B79E004C0991F961708F0961BAA
:102AB000881F7A95C9F780950895EE0FFF1F05903E
:102AC000F491E02D09940F931F93CF93DF938230FD
:102AD000910510F482E090E0E0913703F091380323
:102AE00020E030E0A0E0B0E0309719F14081518162
:102AF0000281138148175907C8F08417950769F4B4
:102B0000109731F012960C93129713961C9327C0CE
:102B1000009337031093380322C02115310519F0B3
:102B20004217530718F49A01BD01EF01DF01F801C4
:102B3000DBCF21153105F9F0281B390B2430310585
:102B400080F48A819B816115710521F0FB019383DB
:102B5000828304C09093380380933703FE0132963A
:102B600044C0FE01E20FF31F81939193225031097B
:102B7000398328833AC02091350330913603232BC3
:102B800041F420910E0130910F01309336032093D0
:102B9000350320910C0130910D012115310541F4CF
:102BA0002DB73EB74091100150911101241B350BF8
:102BB000E0913503F0913603E217F307A0F42E1BE2
:102BC0003F0B2817390778F0AC014E5F5F4F241791
:102BD000350748F04E0F5F1F50933603409335037F
:102BE0008193919302C0E0E0F0E0CF01DF91CF91BB
:102BF0001F910F910895CF93DF93009709F481C03F
:102C0000FC01329713821282A0913703B0913803EE
:102C1000109781F420813181820F931F2091350319
:102C2000309136032817390751F5F0933603E093B6
:102C3000350367C0ED0120E030E0CE17DF0740F438
:102C40004A815B819E0141155105F1F0EA01F5CF02
:102C5000D383C28340815181840F951FC817D90740
:102C600059F488819981840F951F029691838083FE
:102C70008A819B81938382832115310529F4F09306
:102C80003803E09337033DC0E901FB83EA834991B0
:102C90005991C40FD51FEC17FD0761F48081918114
:102CA000840F951F0296E90199838883828193811D
:102CB0009B838A83E0E0F0E012968D919C911397BC
:102CC000009719F0FD01DC01F7CF8D919C911197D0
:102CD0009D012E5F3F4F820F931F2091350330914E
:102CE00036032817390769F4309729F4109238030E
:102CF0001092370302C013821282B0933603A0935E
:102D00003503DF91CF910895A0E0B0E0EAE8F6E165
:102D10000C948214EC01009721F4CB010E946315FE
:102D2000B4C0FC01E60FF71F9C0122503109E217E5
:102D3000F30708F4A8C0D9010D911C91119706174B
:102D40001707B0F00530110508F49BC0C8010497BF
:102D50008617970708F495C002501109061B170B38
:102D6000019311936D937C93CF010E94FB1589C051
:102D70005B01A01AB10A4C01800E911EA09137038D
:102D8000B0913803612C712CE12CF12C109709F4CF
:102D900046C08D919C911197A815B905B1F56C01AC
:102DA00042E0C40ED11CCA14DB0478F14C018A182D
:102DB0009B08640142E0C40ED11C1296BC9012978D
:102DC0001396AC91B5E0CB16D10440F0B282A38348
:102DD00091828082D9016D937C9309C00E5F1F4F51
:102DE000800F911FF90191838083EB2DFA2FE1145D
:102DF000F10431F0D7011396FC93EE93129741C082
:102E0000F0933803E09337033CC06816790608F462
:102E10003C017D0112960D90BC91A02DB7CF809101
:102E200035039091360388169906E1F46616770605
:102E3000C8F480910C0190910D01009741F48DB779
:102E40009EB74091100150911101841B950BE8171A
:102E5000F907C8F4F0933603E0933503F901718361
:102E600060830FC0CB010E9463157C01009759F06D
:102E7000A801BE010E944F17CE010E94FB15C70199
:102E800004C0CE0102C080E090E0CDB7DEB7EEE036
:102E90000C949E1481E090E0F8940C94201AFB01AD
:102EA000DC0102C001900D9241505040D8F70895C6
:102EB000FB01DC0101900D920020E1F70895AEE0E6
:102EC000B0E0E5E6F7E10C948C140D891E898F893A
:102ED000988D26E02C831A83098397FF02C080E037
:102EE00090E801979E838D83AE01455E5F4F698DAB
:102EF0007A8DCE0101960E948F174D815E8157FD1C
:102F00000AC02F813885421753070CF49A01F80143
:102F1000E20FF31F10822E96E4E00C94A814ABE0AD
:102F2000B0E0E5E9F7E10C947E146C017B018A01C5
:102F3000FC0117821682838181FFCCC1CE010196EC
:102F40003C01F6019381F70193FD859193FF8191F7
:102F50007F01882309F4BAC1853239F493FD859144
:102F600093FF81917F01853229F4B60190E00E94A0
:102F70008619E7CF912C212C312CFFE1F315D8F0E5
:102F80008B3279F038F4803279F08332A1F4232D3A
:102F900020611DC08D3261F0803369F4232D2160E2
:102FA00016C0832D8260382EE32DE4603E2E2AC0A9
:102FB000F32DF8601DC037FC2DC020ED280F2A30FE
:102FC00040F08E32B9F436FC81C1232D2064322EBC
:102FD00019C036FE06C08AE0989E200D1124922E5C
:102FE00011C0EAE02E9E200D1124222EF32DF06256
:102FF0003F2E08C08C3621F4832D8068382E02C005
:10300000883641F4F70193FD859193FF81917F010B
:103010008111B3CF982F9F7D9554933028F40C5F86
:103020001F4F9FE399830DC0833631F0833771F0D2
:10303000833509F059C021C0F801808189830E5F72
:103040001F4F88248394912C530113C02801F2E070
:103050004F0E511CF801A080B18036FE03C0692DCF
:1030600070E002C06FEF7FEFC5010E947B194C0139
:103070008201F32DFF773F2E16C0280122E0420E79
:10308000511CF801A080B18036FE03C0692D70E0AC
:1030900002C06FEF7FEFC5010E9470194C01F32D44
:1030A000F0683F2E820133FC1BC0822D90E0881611
:1030B0009906B0F4B60180E290E00E9486192A9445
:1030C000F4CFF50137FC859137FE81915F01B601A0
:1030D00090E00E94861921102A9421E0821A91081A
:1030E0008114910471F7E8C0843611F0893641F5F6
:1030F000F80137FE07C060817181828193810C5F86
:103100001F4F08C060817181072E000C880B990B3E
:103110000E5F1F4FF32DFF763F2E97FF09C090954E
:103120008095709561957F4F8F4F9F4FF0683F2E30
:103130002AE030E0A3010E94C219882E861845C0FB
:10314000853731F4232D2F7EB22E2AE030E025C0C2
:10315000932D997FB92E8F36C1F018F4883579F008
:10316000B5C0803719F0883721F0B0C0E92FE06191
:10317000BE2EB4FE0DC0FB2DF460BF2E09C034FE80
:103180000AC0292F2660B22E06C028E030E005C014
:1031900020E130E002C020E132E0F801B7FE07C0D4
:1031A00060817181828193810C5F1F4F06C06081B5
:1031B000718180E090E00E5F1F4FA3010E94C21951
:1031C000882E8618FB2DFF773F2E36FE0DC0232D4F
:1031D0002E7FA22E891458F434FE0BC032FC09C095
:1031E000832D8E7EA82E05C0B82CA32C03C0B82C2E
:1031F00001C0B92CA4FE0FC0FE01E80DF11D8081B5
:10320000803321F49A2D997EA92E09C0A2FE06C012
:10321000B394B39404C08A2D867809F0B394A3FCC8
:1032200011C0A0FE06C0B21488F4280C922C9B1882
:103230000EC0B21460F4B60180E290E00E948619DC
:10324000B394F7CFB21418F42B1802C0982C212C89
:10325000A4FE10C0B60180E390E00E948619A2FE91
:1032600017C0A1FC03C088E790E002C088E590E0A9
:10327000B6010CC08A2D867859F0A1FE02C08BE2FF
:1032800001C080E2A7FC8DE2B60190E00E948619A1
:10329000891438F4B60180E390E00E9486199A946C
:1032A000F7CF8A94F301E80DF11D8081B60190E01B
:1032B0000E9486198110F5CF222009F442CEB60172
:1032C00080E290E00E9486192A94F6CFF60186816A
:1032D000978102C08FEF9FEF2B96E2E10C949A1436
:1032E000FC010590615070400110D8F780959095D1
:1032F0008E0F9F1F0895FC016150704001900110D6
:10330000D8F7809590958E0F9F1F08950F931F9368
:10331000CF93DF93FB01238121FD03C08FEF9FEF4C
:103320002CC022FF16C04681578124813581421767
:10333000530744F4A081B1819D012F5F3F4F31833A
:1033400020838C93268137812F5F3F4F37832683DD
:1033500014C08B01EC01FB010084F185E02D09957F
:10336000892BE1F6D80116968D919C9117970196BD
:1033700017969C938E931697CE01DF91CF911F9154
:103380000F910895FA01AA27283051F1203181F1D7
:10339000E8946F936E7F6E5F7F4F8F4F9F4FAF4F5D
:1033A000B1E03ED0B4E03CD0670F781F891F9A1F70
:1033B000A11D680F791F8A1F911DA11D6A0F711D24
:1033C000811D911DA11D20D009F468943F912AE030
:1033D000269F11243019305D3193DEF6CF01089518
:1033E000462F4770405D4193B3E00FD0C9F7F6CF49
:1033F000462F4F70405D4A3318F0495D31FD405211
:10340000419302D0A9F7EACFB4E0A69597958795A6
:1034100077956795BA95C9F7009761057105089585
:103420009B01AC010A2E0694579547953795279531
:10343000BA95C9F7620F731F841F951FA01D0895C9
:1034400010E0C3EFD0E004C0FE010E945D1521969C
:0A345000C43FD107C9F7F894FFCF7D
:10345A00FFFFFFFF00E10000000000000000390349
:10346A00800009000A00050004000D0006000B0098
:10347A000C001600170001000000120013001400CF
:10348A00150000C1808100000000000000E0015228
:10349A0002D802F60101020003DC02000000002249
:1034AA00031E0321303025303258303000212530B8
:1034BA0034583030003E2530345800253031306CD5
:1034CA00750025303575003F3F3F003430253032D6
:1034DA0058253032580042422D34303000242530ED
:1034EA00345824256C7524256C7524256C7524257F
:1034FA006C7524256C7524256C7524256C7524251A
:06350A006C75000D0A00C3
:00000001FF
