:100000000C94F4000C941C010C941C010C941C0125
:100010000C941C010C941C010C941C010C941C01EC
:100020000C941C010C941C010C9494040C94060573
:100030000C941C010C941C010C941C010C941C01CC
:100040000C941C010C941C010C941C010C941C01BC
:100050000C941C010C94BC090C941C010C94D70743
:100060000C941C010C941C010C941C010C941C019C
:100070000C941C010C941C010C941C010C941C018C
:100080000C941C010C941C010C941C010C941C017C
:100090000C941C010C941C010C941C010C941C016C
:1000A0000C941C010C941C010C941C014002430292
:1000B000320236023C0264026402640247024B02CE
:1000C0004F025502590264025F0221303100213093
:1000D00031003F30310000000000240027002A00DA
:1000E0002D00300000000000250028002B002E000D
:1000F0003100000000002300260029002C002F0002
:1001000004040404040304050202020204030202BC
:10011000020206060606060604040202020404049D
:1001200008020110408040102040804080080204F6
:10013000018040201002011080102040402000006B
:10014000000200090F0000030401000C0000000081
:1001500000000000000000000000000000080B008C
:10016000020202010009040000010202000005244D
:1001700000100105240101010424020605240600E3
:10018000010705810310004009040100020A000074
:10019000000705020240000007058302400000043A
:1001A00003090412010002EF0201404123378000DD
:1001B000010102030141726475696E6F204C4C436A
:1001C0000041726475696E6F204D6963726F003F04
:1001D00000312E302E390021303142422D34303062
:1001E000003E00003312860B11241FBECFEFDAE071
:1001F000DEBFCDBF22E0A0E9B1E001C01D92A23E6A
:10020000B207E1F711E0A0E0B1E0E4E8F2E302C0F8
:1002100005900D92A039B107D9F710E0C3EFD0E0F7
:1002200004C02197FE010E947514C23FD107C9F78F
:100230000E948E0B0C9435190C9400000895409187
:100240009B0150919C012091990130919A01421794
:100250005307B4F49091E8009570E1F39091E800B1
:1002600092FD19C08093F10080919B0190919C01B7
:1002700001968F739927892B19F48EEF8093E800EC
:1002800080919B0190919C01019690939C01809399
:100290009B0181E0089580E00895CF92DF92EF9274
:1002A000FF920F931F93CF93DF931F92CDB7DEB7CB
:1002B000182F062FE42E862F880F8E5F99830E94B9
:1002C0001F0183E00E941F01F12EC12E9981D92EBA
:1002D0008C2D8F19801798F4F601E7FE02C08491E7
:1002E00001C080810E941F01182F80E00E941F0121
:1002F0008123FFEFCF1ADF0A8111EACF01C081E02D
:100300000F90DF91CF911F910F91FF90EF90DF90B1
:10031000CF900895DF92EF92FF920F931F93CF93A8
:10032000DF93D82E8A017B01E40EF51EEB01CE157A
:10033000DF0571F0D7FE03C0FE01849101C0888102
:100340000E941F0121968111F2CF8FEF9FEF01C014
:10035000C801DF91CF911F910F91FF90EF90DF9037
:100360000895615030F02091F100FC012083019646
:10037000F8CF289A84E68093A4010895CF92DF9263
:10038000EF92FF920F931F93CF93DF936C017A014B
:100390008B01C0E0D0E0CE15DF0589F0D8016D916A
:1003A0008D01D601ED91FC910190F081E02DC60107
:1003B0000995892B11F47E0102C02196ECCFC7016B
:1003C000DF91CF911F910F91FF90EF90DF90CF9031
:1003D0000895CF93DF931F92CDB7DEB76983DC0119
:1003E000ED91FC910280F381E02D41E050E0BE01EF
:1003F0006F5F7F4F09950F90DF91CF91089583E054
:100400008093E9008091F200882319F08AE38093B9
:10041000E8000895FC018485958597FD0BC09FB782
:10042000F89482E08093E9008091F2009FBF90E011
:10043000019608959FB7F89482E08093E900809137
:10044000F2009FBF90E00895089580E090E0089545
:1004500090E0FC013197EF30F105B0F5EA5AFF4F1B
:100460000C947514809180008F7703C08091800078
:100470008F7D80938000089580918000877FF9CFE1
:1004800084B58F7702C084B58F7D84BD0895809137
:1004900090008F7707C0809190008F7D03C080917E
:1004A0009000877F8093900008958091C0008F779F
:1004B00003C08091C0008F7D8093C000089580911B
:1004C000C200877F8093C2000895CF93DF93282FC7
:1004D00030E0F901E25CFE4F8491F901E15EFE4FEC
:1004E000D491F901E050FF4FC491CC2391F08111D8
:1004F0000E942802EC2FF0E0EE0FFF1FEE50FF4F9E
:10050000A591B491EC91ED2381E090E021F480E09D
:1005100002C080E090E0DF91CF910895FC018185D9
:100520000E94650221E0892B09F420E0822F0895C2
:100530000E9472160F931F93CF93DF931F92CDB734
:10054000DEB782E0898342E450E06DE571E080E847
:100550000E948A010E94720BDC0112960D911C917F
:1005600013970115110569F0D801ED91FC910280F6
:10057000F381E02DBE016F5F7F4FC801099597FFA2
:1005800007C089810F90DF91CF911F910F9108953E
:10059000F80100851185E5CF8F929F92AF92BF92AF
:1005A000CF92DF92EF92FF920F931F93CF93DF933F
:1005B0006C015B017A0180910B01882309F456C01C
:1005C0008091A501882309F451C080919F0180FF8B
:1005D00005C08091E00082608093E000E70110E0B8
:1005E0000AEF83E0882E9AE3992E2097B1F10E94BA
:1005F000610B811105C00150C9F10E94470BF5CF75
:10060000282F30E0C217D3070CF48C2F4FB7F89483
:100610008092E9009091E80095FF1DC0282F30E0FE
:10062000C21BD30BF501982F915020F0819180933C
:10063000F100FACFA20EB31E112319F09092E80038
:1006400009C08091E80085FD06C09092E80011E0A5
:10065000209709F010E04FBFC8CF1111C8CF5D9AA5
:1006600084E680939D011E141F0444F081E090E015
:10067000F6019383828380E090E001C0C701DF919F
:10068000CF911F910F91FF90EF90DF90CF90BF908F
:10069000AF909F908F9008950E94610B90E0089515
:1006A0000F931F93CF93DF931F92CDB7DEB78C01CB
:1006B000FC018485958597FF0EC0CE0101960E94AE
:1006C0001D0B019719F4298130E002C02FEF3FEF95
:1006D000F80135872487F801848595850F90DF918F
:1006E000CF911F910F910895CF93DF931F92CDB7B4
:1006F000DEB7FC018485958597FD05C02FEF3FEFA0
:10070000358724870BC0CE0101960E941D0B0197EF
:1007100019F4898190E002C08FEF9FEF0F90DF9175
:10072000CF9108950C948C13FC01248135816217BC
:10073000730748F480819181009729F0FC01E60F4E
:10074000F71F8081089580E008950F931F93CF9342
:10075000DF938C01EB01FC01808191810097B1F066
:10076000688179816115710579F0428153812C810D
:100770003D814217530740F00E9480168C819D8175
:10078000F8019583848313C00E9410158881998194
:10079000F801918380838A819B81938382838C81FA
:1007A0009D8195838483198218821B821A821D82FF
:1007B0001C82DF91CF911F910F9108950F931F938A
:1007C000CF93DF93EC0188819981009729F02A81EA
:1007D0003B812617370788F48B016F5F7F4F0E949C
:1007E000A815009761F0998388831B830A832C8165
:1007F0003D81232B11F4FC01108281E001C080E0D7
:10080000DF91CF911F910F910895EF92FF920F9377
:100810001F93CF93DF9300D0CDB7DEB78C016983F0
:100820001A82FC01E480F580FFEFEF1AFF0AB7019E
:100830000E94DE03882381F0F801208131818481C8
:100840009581BE016F5F7F4F820F931F0E948016BC
:10085000F801F582E48281E00F900F90DF91CF9153
:100860001F910F91FF90EF900895EF92FF920F93D9
:100870001F93CF93DF93EC017B018A01BA010E94A1
:10088000DE032881398181110DC02115310519F050
:10089000C9010E941015198218821D821C821B82B8
:1008A0001A8206C01D830C83B701C9010E948016FD
:1008B000CE01DF91CF911F910F91FF90EF9008959E
:1008C000FC01808191810C941015FB01DC011196D3
:1008D0001C921E9213961C921E92129715961C92B1
:1008E0001E9214978617970749F0608171816115F0
:1008F000710521F0448155810C9435040895FC0163
:100900001182108213821282158214826115710580
:1009100051F0FB0101900020E9F73197AF01461B30
:10092000570B0C94350408951F920F920FB60F9237
:1009300011248F939F938091E1009091E100937F28
:100940009093E10083FF0FC01092E90091E0909333
:10095000EB001092EC0092E39093ED001092A50151
:1009600098E09093F00082FF20C093E09093E9001C
:100970009091F200992319F09AE39093E8009091F6
:100980009D01992339F090919D01915090939D0183
:10099000992389F19091A401992339F09091A401B0
:1009A00091509093A401992341F184FF10C080914C
:1009B000E2008E7E81608093E2008091E1008F7E74
:1009C0008093E10080919F018E7E806111C080FF45
:1009D00016C08091E2008E7E80618093E20080915B
:1009E000E1008E7E8093E10080919F018E7E816088
:1009F00080939F0104C05D98CDCF2898D6CF9F915A
:100A00008F910F900FBE0F901F9018951F920F920D
:100A10000FB60F921124CF92DF92EF92FF920F93B5
:100A20001F932F933F934F935F936F937F938F9376
:100A30009F93AF93BF93EF93FF93CF93DF93CDB784
:100A4000DEB76C97DEBFCDBF1092E9008091E80061
:100A500083FFEDC168E0CE0145960E94B10182EFAF
:100A60008093E8008D8987FF05C09091E80090FF92
:100A7000FCCF03C09EEF9093E800982F907609F08A
:100A8000C6C09E892F89188D91110CC0803829F419
:100A90008091A0018093F10002C01092F1001092A9
:100AA000F10048C1422F50E0512B913051F4811197
:100AB00041C14130510509F03DC18091A0018D7FB8
:100AC0000BC0933061F4811135C14130510509F0FB
:100AD00031C18091A00182608093A0012BC195302B
:100AE00041F48091E80080FFFCCF20682093E30070
:100AF00021C1963009F05FC0EB8CFC8C1092E900AC
:100B000010929C0110929B01123091F510929A0163
:100B1000109299010E949A0299E0BE016F5F7F4F87
:100B2000DB01E92F1D92EA95E9F799831A8391E099
:100B30009E8390EA98879AEF998720919B01309144
:100B40009C01275F3F4F3C832B838D831092E900EC
:100B500010929C0110929B01F0929A01E0929901EF
:100B600049E050E080E00E948A010E949A02E2C0BF
:100B7000F0929A01E09299010E94720BDC011296A8
:100B8000ED90FC901397E114F10409F4C0C0D70173
:100B9000ED91FC910480F581E02DBE016B5E7F4FED
:100BA000C7010995009719F00CF0C4C0C7C0F70140
:100BB000E084F184E8CF973009F4C0C0983021F484
:100BC00081E08093F100B6C0993009F0B3C0837022
:100BD00009F0B4C0E3E1F1E081E021E036E3908187
:100BE000992361F08093E9002093EB009191909319
:100BF000EC003093ED008F5F873089F78EE78093AC
:100C0000EA001092EA008F898093A50193C08B8D32
:100C10009C8D1092E90010929C0110929B01909380
:100C20009A0180939901898D811156C08E899D8981
:100C3000913A59F4813209F081C047E050E064E014
:100C400071E080E00E948A0175C0913209F076C09F
:100C5000833289F4888D90E0982F88272F89822B02
:100C6000A0E0B0E08093000190930101A093020105
:100C7000B09303015FC0803269F48091E80082FF85
:100C8000FCCF67E084E091E00E94B1018BEF80939C
:100C9000E80006C0823209F04DC08F8980930B01B5
:100CA00080919E01882319F0EEEFFAE002C0E0E0A7
:100CB000F8E08091040190910501A0910601B091A6
:100CC0000701803B9440A105B10509F07BC08091EC
:100CD0000B0180FF93C076C00E94720BDC0112965C
:100CE0000D911C9113970115110541F1D801ED915A
:100CF000FC910190F081E02DBE016B5E7F4FC80139
:100D00000995811117C0F80100851185ECCF1130CC
:100D100009F44EC0133091F48F89882309F445C03B
:100D2000823081F440E86DE081EC91E00E944D0159
:100D3000882321F08EEF8093E80079C081E28093D0
:100D4000EB0075C0813029F440E86BE085EB91E061
:100D5000EDCF833099F70E94720BDC011296ED9073
:100D6000FC9013978E010F5F1F4F6801E114F1048F
:100D700079F0D701ED91FC910680F781E02DB80163
:100D8000C7010995080F111DF701E084F184EECF2A
:100D9000D8011C92F60101900020E9F73197BF01BC
:100DA0006C197D0940E0C601C1CF6FE971E002C056
:100DB00063EA71E06115710509F2FB01449150E0AD
:100DC00080E840CF0FB6F894A895809160008861C4
:100DD00080936000109260000FBEA895EE3F2AE05D
:100DE000F20739F08091FE0A9091FF0A9183808387
:100DF000A1CF1092FF0A1092FE0A9CCFEE3F8AE02C
:100E0000F80731F0808191819093FF0A8093FE0A68
:100E100087E797E7918380839BE088E10FB6F8949A
:100E2000A895809360000FBE9093600083CF6C966E
:100E30000FB6F894DEBF0FBECDBFDF91CF91FF910B
:100E4000EF91BF91AF919F918F917F916F915F9142
:100E50004F913F912F911F910F91FF90EF90DF9055
:100E6000CF900F900FBE0F901F9018951F93CF93A8
:100E7000DF93282F30E0F901E25CFE4F8491F90105
:100E8000E15EFE4FD491F901E050FF4FC491CC23B5
:100E9000C9F0162F81110E942802EC2FF0E0EE0F0E
:100EA000FF1FEC51FF4FA591B4918FB7F89411112A
:100EB00005C09C91ED2FE095E92302C0EC91ED2B4C
:100EC000EC938FBFDF91CF911F910895CF93DF9364
:100ED00090E0FC01E15EFE4F2491FC01E050FF4FE9
:100EE0008491882361F190E0880F991FFC01EA52F8
:100EF000FF4FC591D491FC01EC51FF4FA591B491E6
:100F0000611109C09FB7F894888120958223888356
:100F1000EC912E230BC0623061F49FB7F8943881B6
:100F2000822F809583238883EC912E2B2C939FBF57
:100F300006C08FB7F894E8812E2B28838FBFDF91EE
:100F4000CF910895862F642F0C9466073FB7F894CD
:100F50008091950190919601A0919701B09198018F
:100F600026B5A89B05C02F3F19F00196A11DB11D04
:100F70003FBFBA2FA92F982F8827820F911DA11D3F
:100F8000B11DBC01CD0142E0660F771F881F991F7C
:100F90004A95D1F708952FB7F89460919101709117
:100FA000920180919301909194012FBF08951F9217
:100FB0000F920FB60F9211242F933F938F939F930D
:100FC000AF93BF938091910190919201A091930171
:100FD000B09194013091900123E0230F2D3720F43C
:100FE0000196A11DB11D05C026E8230F0296A11D83
:100FF000B11D209390018093910190939201A09351
:101000009301B09394018091950190919601A091E4
:101010009701B09198010196A11DB11D8093950192
:1010200090939601A0939701B0939801BF91AF91CF
:101030009F918F913F912F910F900FBE0F901F9016
:1010400018950F931F93CF93DF931F92CDB7DEB701
:101050008C0169830E948C136981681741F0C80173
:101060000F90DF91CF911F910F910C9494130F90DB
:10107000DF91CF911F910F9108954F925F926F92E0
:101080007F92AF92BF92CF92DF92EF92FF920F9337
:101090001F93CF93DF936C01FC01A480B580EB011B
:1010A000412C512C32017B01E40EF51ECE15DF05DB
:1010B00074F5CA15DB055CF5BE01C6010E949403F8
:1010C00020ED280F94E0440C551C661C771C9A9563
:1010D000D1F7082E000C990B2A3060F4AC01405374
:1010E0005109052E000C660B770B442A552A662AF7
:1010F000772A0BC0C7978F7099278C01990F220B05
:10110000330B402A512A622A732A2196CFCFC3017A
:10111000B201DF91CF911F910F91FF90EF90DF907F
:10112000CF90BF90AF907F906F905F904F90089559
:10113000CF92DF92EF92FF920F931F93CF93DF93A3
:101140007C01FC01C480D580EB018B01040F151FCD
:10115000C017D107A4F4CC15DD058CF4BE01C7017E
:101160000E949403982F80ED890F8A3020F09F7D94
:101170009154963010F42196EBCF80E001C081E0CD
:10118000DF91CF911F910F91FF90EF90DF90CF9063
:10119000089582ED90E00C94D80A8EEC90E00C94C7
:1011A000D80A8AEC90E00C94B70ACF92DF92EF92C3
:1011B000FF920F931F93CF93DF9300D000D000D006
:1011C000CDB7DEB782E190E00E9492038095807AED
:1011D000C82E8093A10183E190E00E9492039DEFCD
:1011E000980F983008F08AE08093A20106EF11E092
:1011F00084E1E82EF12C81E0C11001C080E0F8010B
:10120000838BC7010E949203D82EC70101960E94CA
:1012100092036D2D70E0782B60957095F801708BBE
:1012200067876115710519F41486138615C080E06F
:1012300090E00E94911220E030E04AE75FE30E94D4
:10124000CE1220E030E040E85FE30E94DA130E9413
:101250004614F80174876387065E1F4FF2E0EF0EB5
:10126000F11C84E2E816F10431F664E871E0CE0185
:1012700001960E947F04BE016F5F7F4F86EC92E073
:101280000E94A503CE0101960E9460046AE070E00E
:1012900086EC92E00E94DE0308E010E0C8010E94A4
:1012A000920390EE980F9F35C0F08091CA02909102
:1012B000CB02892BE9F463E571E0CE0101960E942F
:1012C0007F04BE016F5F7F4F86EC92E00E94A50312
:1012D000CE0101960E9460040BC0682F86EC92E05C
:1012E0000E9405040F5F1F4F02311105B9F6DDCFD3
:1012F00026960FB6F894DEBF0FBECDBFDF91CF911B
:101300001F910F91FF90EF90DF90CF900895FC0117
:10131000662329F0808D811102C08081818F608FCA
:10132000662311F061E001C060E083810C94360710
:10133000EF92FF920F931F93CF93DF9306EF11E08D
:10134000C0E0D0E0E82EF12CB7010C2E02C075955C
:1013500067950A94E2F76170C8010E948709219697
:10136000065E1F4FC830D10579F7DF91CF911F91ED
:101370000F91FF90EF9008951F920F920FB60F926A
:1013800011247F928F929F92AF92BF92CF92DF9261
:10139000EF92FF920F931F932F933F934F935F937F
:1013A0006F937F938F939F93AF93BF93CF93DF936D
:1013B000EF93FF9303E012E0C6EFD1E08FE0E82E59
:1013C00082E0F82EDD24D39492E0C92EF8018081CA
:1013D0008B7F8083ED81FE810190F081E02DCE0135
:1013E00005960995782EF80180818695817078168A
:1013F00051F00E94CB076F83788789879A87F8011D
:1014000080818C2526C00E94CB078F809884A98478
:10141000BA849B01AC01281939094A095B094901C1
:101420005A014B855C8560E070E084169506A6063F
:10143000B70680F0F80190819170791659F00E94FA
:10144000CB076F83788789879A87F80180818D25FC
:1014500084608083F70136979081F8018081992319
:1014600021F08570853029F447C080FD02C082FDDF
:1014700043C0F8018081F70180FF02C0389701C0A6
:101480003797D082F7018081882319F081508083BB
:101490000AC0F70131978081882329F089810E9451
:1014A0006502892BA9F5065E1F4F6A96FAE1EF0ED9
:1014B000F11C22E0033D120709F088CFFF91EF9164
:1014C000DF91CF91BF91AF919F918F917F916F915C
:1014D0005F914F913F912F911F910F91FF90EF904E
:1014E000DF90CF90BF90AF909F908F907F900F90A4
:1014F0000FBE0F901F9018958C899D89AE89BF896A
:101500000196A11DB11D8C8B9D8BAE8BBF8BB1CF76
:1015100060E0CE010E948709C6CFFC012785308993
:10152000232B41F481810E94650221E0892B29F45B
:1015300020E003C0FC0125852170822F0895BC01A5
:10154000009791F0FC0101900020E9F73197AF017D
:10155000481B590BE091A601F091A7010280F3818D
:10156000E02D86EA91E0099480E090E008950F93E1
:101570001F93CF93DF938C01C0E0D0E0F801EC0F14
:10158000FD1F6491662371F0E091A601F091A7011F
:101590000190F081E02D86EA91E00995892B11F008
:1015A0002196ECCFCE01DF91CF911F910F9108953D
:1015B000CF93DF930E94B70AEC0182E891E00E948A
:1015C0009F0A8C0F9D1FDF91CF910895CF93DF93DA
:1015D0000E949F0AEC0182E891E00E949F0A8C0F12
:1015E0009D1FDF91CF910895CF93DF9300D000D05E
:1015F00000D0CDB7DEB76CEC72E0CE0101960E9450
:10160000650442E050E063E070E0CE0101960E9484
:101610003D08862F0E949809CE0101960E94600421
:1016200081EE91E00E94D80A26960FB6F894DEBFAC
:101630000FBECDBFDF91CF910895FC018091A50130
:10164000811103C08FEF9FEF08959FB7F89482E058
:101650008093E9002091F20030E01216130614F492
:1016600021E030E02115310559F0289A84E6809375
:10167000A4018091F10080838091F200882319F009
:101680009FBFC90108958BE68093E800F9CFCF9200
:10169000DF92EF92FF920E94A6076B017C010E94ED
:1016A000A607DC01CB018C199D09AE09BF09883E54
:1016B0009340A105B10598F3FF90EF90DF90CF9094
:1016C00008952FB7F89483E08093E9009091E800A3
:1016D000892F807295FF04C09091F20080E4891BED
:1016E0002FBF08958091D60281110DC082E08093B2
:1016F000D20284E08093D3021092D5021092D402D9
:1017000081E08093D60282ED92E0089586EC92E02B
:101710000E9460048CEC92E00C946004CF93DF9301
:10172000CDB7DEB72D970FB6F894DEBF0FBECDBF95
:10173000789484B5826084BD84B5816084BD85B5AC
:10174000826085BD85B5816085BD80916E008160B8
:1017500080936E001092810080918100826080935E
:101760008100809181008160809381008091800060
:1017700081608093800080919100826080939100CD
:1017800080919100816080939100809190008160B0
:10179000809390008091C10084608093C10080910B
:1017A000C10082608093C1008091C10081608093FC
:1017B000C1008091C30081608093C3008091C0000C
:1017C00082608093C0008091C20081608093C200DB
:1017D00080917A00846080937A0080917A008260A0
:1017E00080937A0080917A00816080937A00809162
:1017F0007A00806880937A001092A5011092A0016F
:1018000010929F018091D70081608093D70080EA79
:101810008093D80089B5806189BD89B5826089BD12
:1018200009B400FEFDCF0E94470B8091D8008F7C49
:1018300080618093D8008091E000807F8093E000F9
:101840008091E1008E7E8093E1008DE08093E20044
:10185000559A209A5D982898EEEFFFE7859194912C
:101860008B3F9C4D19F481E080939E0185B7806881
:1018700085BF85BF85BF79E2472E71E0572E06EF01
:1018800011E0E3E0EE2EE2E0FE2EF9E18F2EF1E032
:101890009F2EA12CB12CD2018C9111969C91B2E07B
:1018A0004B0E511CF8018183928360E00E94660711
:1018B00095012A503E4F3901D80111968C91F901BA
:1018C0008687D7011C92D8011596ED91FC91169749
:1018D0000190F081E02DC80105960995882321F03B
:1018E000F7018081836080830E94CB07D80117961F
:1018F0006D937D938D939C931A971F968D919C91D8
:1019000050971C969C938E931B97F4018081918134
:10191000F2E08F0E911C13968C93139714969C9360
:1019200060E00E94360761E0D80113968C910E9416
:101930006607F301108E118EFAE1AF0EB11C065E40
:101940001F4F2AE1E20EF11C30EDA316B10409F09D
:10195000A2CF80E00E9498090E94D5088FEA87BD37
:1019600080916E00826080936E008FEF9FEF909366
:10197000B3018093B20164E871E08E010F5F1F4FE5
:10198000C8010E947F04B8018CEC92E00E94A5037C
:10199000C8010E94600469E270E08CEC92E00E9451
:1019A000DE0355E8852E51E0952E64E6662E61E053
:1019B000762E86EA91E00E940A02892B09F493C0F0
:1019C00086EA91E00E9474038C878D3029F480911F
:1019D000A3018A3089F507C04C854A3039F48091DB
:1019E000A3018D3049F51092A3017DC08C8588300C
:1019F00011F08F37D9F42091D0023091D102121614
:101A000013060CF06DC0C90101978217930708F007
:101A100067C09093D1028093D0022091CC02309184
:101A2000CD02F901E80FF91F10825AC09C859A3146
:101A3000F1F564E871E043C0E090D002F090D1028B
:101A4000A3E0EA16F104F8F061E070E08CEC92E0BB
:101A50000E9494038033B9F462E070E08CEC92E071
:101A60000E949403813379F460E070E08CEC92E0A2
:101A70000E949403853209F0A8C0BBE0EB16F10484
:101A8000D1F10E94C90864E871E0C8010E947F0496
:101A9000B8018CEC92E00E94A503C8010E9460048A
:101AA00069E270E08CEC92E00E94DE0319C0809144
:101AB000D0029091D102899770F06EE771E0C80171
:101AC0000E947F04B8018CEC92E00E94A503C8013B
:101AD0000E94600405C06C858CEC92E00E940504B5
:101AE0003C853093A30180E090E0892B09F461CF1D
:101AF0000E9400005ECF6CEC72E0C8010E94650499
:101B000048E050E063E070E0C8010E949808F82EB9
:101B1000C8010E946004FF2009F4B3CF6CEC72E0AE
:101B2000C8010E94650442E050E065E070E0C80131
:101B30000E943D08E62EC8010E9460046CEC72E031
:101B4000C8010E94650442E050E067E070E0C8010F
:101B50000E943D08C8016D870E9460046D85E0E425
:101B6000EE128FCF8DEF860F883008F08ACF60930A
:101B7000A2016CEC72E0C8010E94650442E050E0F2
:101B800069E070E0C8010E943D08607AF62E60931B
:101B9000A101C8010E94600480E090E0FC01EA50CD
:101BA000FE4F21E0F11001C020E0238B4A96803DDA
:101BB0009105A1F76F2D609582E190E00E942108C8
:101BC0006091A20183E190E042C2843209F0A8C092
:101BD000F4E0EF16F10491F463E070E08CEC92E035
:101BE0000E9494038D3409F4A4C263E070E08CEC8D
:101BF00092E00E949403863489F4FBC295E0E916D2
:101C0000F10461F463E070E08CEC92E00E949403D4
:101C10008D3409F4A7C2833409F4B0C28091D00294
:101C20009091D1028530910509F0E8C263E070E03F
:101C30008CEC92E00E9494038C3421F564E070E017
:101C40008CEC92E00E94940390ED980F9230D0F4C7
:101C500020E030E090E0990FF901813319F4E3546A
:101C6000FD4F02C0E254FD4F4081411191602A5165
:101C7000310920334FEF340771F71F929F93AAE584
:101C8000B1E045C263E070E08CEC92E00E94940306
:101C9000833571F564E070E08CEC92E00E9494036F
:101CA000813309F0EECE6FEF88E090E00E942108CA
:101CB0006FEF82E190E00E9421086FEF83E190E0F6
:101CC0000E94210884E1E82EF12C6FEFC7010E94E9
:101CD00021086FEFC70101960E942108B2E0EB0EC8
:101CE000F11CE4E2EE16F10481F70E94D508B1C1BF
:101CF000823509F0C6CE64E070E08CEC92E00E9480
:101D00009403833509F0BDCE14BE98E088E10FB688
:101D1000F894A895809360000FBE90936000FFCF69
:101D2000803409F05FC0F3E0EF16F10441F5A12C17
:101D3000B12CE12CF12CEE0CFF1CC50184559D4FFC
:101D4000F501EC53FD4F2081222311F06894F0F847
:101D50000E948D0A882311F06894E0F82AE1A21A03
:101D6000B10830E3A3163FEFB30629F7FF92EF92D5
:101D7000ACE6B1E0BF93AF931F9286E0CCC135E0F3
:101D8000E316F104A9F46CEC72E0C8010E9465044A
:101D900042E050E063E070E0C8010E949808F82E2D
:101DA000C8010E946004FF2019F00E94F40A6BCE63
:101DB0008091D0029091D102079709F062CE6CEC2D
:101DC00072E0C8010E94650444E050E063E070E006
:101DD000C8010E949808F82EC8010E946004F11002
:101DE000E4CF4FCE833209F0DAC044E0E416F104C8
:101DF00009F07DC06CEC72E0C8010E94650441E00E
:101E000050E063E070E0C8010E949808F82EC80115
:101E10000E946004FF2009F46AC06CEC72E0C80103
:101E20000E94650441E050E063E070E0C8010E9458
:101E30003D08F62EC8010E94600487E08F1508F463
:101E400020CE0E94D1088091A1016F2D70E085FF06
:101E500025C030916E0080916E008D7F80936E0062
:101E60008AE1869FF001879FF00D1124EA50FE4F12
:101E7000848995892689478930936E004F932F93E3
:101E80009F938F93A2E7B1E0BF93AF931F928BE034
:101E90008F931F930F930E94871620C020916E008E
:101EA00080916E008D7F80936E008AE1869FF001A5
:101EB000879FF00D1124EA50FE4F84899589209365
:101EC0006E009F938F93A9E7B1E0BF93AF931F92EA
:101ED0008BE08F931F930F930E9487160FB6F89491
:101EE000DEBF0FBECDBFC8010E94E60ACCCD8091F7
:101EF000D0029091D102079709F0C3CD63E070E062
:101F00008CEC92E00E949403803321F08154823063
:101F100008F0B7CD6CEC72E0C8010E94650441E0A6
:101F200050E064E070E0C8010E949808F82EC801F3
:101F30000E946004FF2009F4A4CD6CEC72E0C8019B
:101F40000E94650441E050E064E070E0C8010E9436
:101F50003D08F62EC8010E94600437E03F1508F4E2
:101F6000B5C163E070E08CEC92E00E94940382348F
:101F700009F4ACC165E070E08CEC92E00E9494033F
:101F8000803309F0A3C166E070E08CEC92E00E941F
:101F9000940390ED980F923008F098C188C18E3765
:101FA00009F071CDC70105970A9708F055C063E0A5
:101FB00070E08CEC92E00E9494038F3409F04CC0E6
:101FC000512C24E0A22EB12CB5018CEC92E00E94A1
:101FD000940390EE980F9F3508F053CD9DED980F28
:101FE000933008F44ECD8E3709F44BCD803211F08A
:101FF000552453944FEFA41AB40AAE14BF0421F72A
:10200000552009F43ECD64E871E0C8010E947F04C8
:102010008091D0029091D1028530910508F0DDC108
:10202000B80186EC92E00E94A503C8010E946004FA
:10203000E12CF12C8091CA029091CB02D701189625
:102040005D01E816F90608F4FCC160E0CD010E94CC
:1020500021080E94CD0817CDEAE0EE16F10449F4FC
:1020600063E070E08CEC92E00E949403883509F400
:1020700032C18091D0029091D102069709F001CD32
:1020800063E070E08CEC92E00E949403883509F0E4
:10209000F8CC64E070E08CEC92E00E94940383340E
:1020A00009F0EFCC6CEC72E0C8010E94650441E0DD
:1020B00050E065E070E0C8010E949808F82EC80161
:1020C0000E946004FF2009F4DCCC6CEC72E0C801D3
:1020D0000E94650441E050E065E070E0C8010E94A4
:1020E0003D08F62EC8010E94600427E02F1508F471
:1020F000C8CC0E94D1083AE1F39EF0011124EA50C5
:10210000FE4F80898F9387858F93ADE6B1E0BF93B3
:10211000AF931F9288E08F931F930F930E948716AF
:10212000C8010E94E60A0FB6F894DEBF0FBECDBF0D
:10213000AACC0E94D108E091A601F091A70140919C
:10214000CA025091CB026091C6027091C702028010
:10215000F381E02D86EA91E0099582E891E00E9402
:102160009F0A91CC64E070E08CEC92E00E949403B2
:10217000803309F053CD87ED91E0AAC06CEC72E09A
:10218000C8010E94650441E050E064E070E0C801CD
:102190000E949808F82EC8010E946004FF2009F4EC
:1021A0003DCD6CEC72E0C8010E94650441E050E056
:1021B00064E070E0C8010E943D08C8016D870E947C
:1021C00060046D85683008F05CCC90916E00809161
:1021D0006E008D7F80936E002AE1629FF0011124D2
:1021E000EA50FE4F148A158A168A178A90936E0059
:1021F00030CF0E94D10881ED91E06AC0049709F0C8
:1022000040CC63E070E08CEC92E00E949403833455
:1022100089F480E090E09C012A503E4FF901E95397
:10222000FF4F1082319610824A9780333FEF930719
:1022300091F70FCF823339F1863309F022CCA12CEC
:10224000B12CE12CF12CEE0CFF1CC50184559D4FE7
:10225000F501EC53FD4F2081222311F06894F0F832
:102260000E948D0A882311F06894E0F84AE1A41ACC
:10227000B10880E3A8168FEFB80629F7FF92EF9216
:102280007F926F9246CF0E94D1088091A1011F9248
:102290008F938091A2011F928F939F928F921F9292
:1022A00087E08F931F930F930E94871639CF61E0C9
:1022B000813309F060E0BAE1FB9EC00111248A502D
:1022C0009E4F0E94870981EE91E002C08FEC91E061
:1022D0000E94D80AD8CB64E070E08CEC92E00E94B7
:1022E0009403833409F0C5CE6CEC72E0C8010E94FF
:1022F000650445E050E065E070E0C8010E94980880
:10230000F82EC8010E946004FF2009F4B2CE6CECE4
:1023100072E0C8010E94650441E050E065E070E0B1
:10232000C8010E943D08E62EC8010E9460046CECC2
:1023300072E0C8010E94650444E050E066E070E08D
:10234000C8010E943D081B012C01C8010E946004C5
:10235000F7E0FE1508F495CB21EA22162FE03206AD
:1023600008F08FCBAE2CB12C3AE1E39EC0011124D2
:10237000DC01AA50BE4F7D0150963C922E921F97D1
:102380002114310429F41C961C921E921B9716C02E
:10239000B10180E090E00E94911220E030E04AE735
:1023A0005FE30E94CE1220E030E040E85FE30E944D
:1023B000DA130E944614F7017487638720943094DF
:1023C000FAE0AF0EB11CAA0CBB1C622DC5010E9425
:1023D0002108632DC50101963ACE8A159B0508F4A4
:1023E0005C01E091CC02F091CD02EA0DFB1DF08082
:1023F00010826091CC027091CD026C5F7F4F61F0D2
:10240000FB0101900020E9F73197AF01461B570B04
:10241000C8010E9435040CC089819A81009711F08F
:102420000E9410151A8219821E821D821C821B8234
:102430008091CC029091CD02FC01EA0DFB1DF0824F
:10244000EFCDB70186EC92E00E949403682FC5019E
:102450000E942108BFEFEB1AFB0AEAE0EE16F10436
:1024600009F0E8CDF6CDCF93DF931092A901109239
:10247000A80188EE93E0A0E0B0E08093AA019093D9
:10248000AB01A093AC01B093AD018DE391E09093CB
:10249000A7018093A6018FEF9FEF9093B3018093E4
:1024A000B20164E871E08CEC92E00E947F0464E881
:1024B00071E086EC92E00E947F04E6EFF1E0AFE08D
:1024C000B2E095E06FE471E04AE050E02FEF3FEFBB
:1024D00081E0908376836583178210861186128649
:1024E00054874387ED012C971882219618823283F6
:1024F0002183108A17862396188221961882148ABF
:10250000158A168A178A21968883259618821C9226
:102510007A965A96C2E0E63CFC07D9F6DF91CF9155
:102520000895E89409C097FB3EF4909580957095C6
:1025300061957F4F8F4F9F4F9923A9F0F92F96E90F
:10254000BB279395F695879577956795B795F11184
:10255000F8CFFAF4BB0F11F460FF1BC06F5F7F4F21
:102560008F4F9F4F16C0882311F096E911C0772333
:1025700021F09EE8872F762F05C0662371F096E83C
:10258000862F70E060E02AF09A95660F771F881F0B
:10259000DAF7880F9695879597F908950E94E112CA
:1025A0000C9452130E94441338F00E944B1320F0F5
:1025B000952311F00C943B130C94411311240C94AB
:1025C00086130E94631370F3959FC1F3950F50E03B
:1025D000551F629FF001729FBB27F00DB11D639FD5
:1025E000AA27F00DB11DAA1F649F6627B00DA11D7B
:1025F000661F829F2227B00DA11D621F739FB00D21
:10260000A11D621F839FA00D611D221F749F332790
:10261000A00D611D231F849F600D211D822F762F29
:102620006A2F11249F5750409AF0F1F088234AF006
:10263000EE0FFF1FBB1F661F771F881F9150504072
:10264000A9F79E3F510580F00C943B130C94861320
:102650005F3FE4F3983ED4F3869577956795B795F9
:10266000F795E7959F5FC1F7FE2B880F911D969513
:10267000879597F9089597F99F6780E870E060E083
:1026800008959FEF80EC089500240A94161617060B
:1026900018060906089500240A9412161306140653
:1026A00005060895092E0394000C11F4882352F0B6
:1026B000BB0F40F4BF2B11F460FF04C06F5F7F4F6E
:1026C0008F4F9F4F089557FD9058440F551F59F055
:1026D0005F3F71F04795880F97FB991F61F09F3F0F
:1026E00079F087950895121613061406551FF2CF38
:1026F0004695F1DF08C0161617061806991FF1CF88
:1027000086957105610508940895E894BB276627AE
:102710007727CB0197F90895F999FECF92BD81BD36
:10272000F89A992780B50895262FF999FECF1FBAF8
:1027300092BD81BD20BD0FB6F894FA9AF99A0FBEEA
:10274000019608952F923F924F925F926F927F92DF
:102750008F929F92AF92BF92CF92DF92EF92FF92B1
:102760000F931F93CF93DF93CDB7DEB7CA1BDB0B5D
:102770000FB6F894DEBF0FBECDBF09942A88398802
:1027800048885F846E847D848C849B84AA84B98409
:10279000C884DF80EE80FD800C811B81AA81B98115
:1027A000CE0FD11D0FB6F894DEBF0FBECDBFED0129
:1027B00008955058BB27AA270E94F1130C94521376
:1027C0000E94441338F00E944B1320F039F49F3FCD
:1027D00019F426F40C9441130EF4E095E7FB0C94E5
:1027E0003B13E92F0E94631358F3BA17620773076C
:1027F0008407950720F079F4A6F50C9485130EF460
:10280000E0950B2EBA2FA02D0B01B90190010C0100
:10281000CA01A0011124FF27591B99F0593F50F418
:10282000503E68F11A16F040A22F232F342F442770
:10283000585FF3CF469537952795A795F040539568
:10284000C9F77EF41F16BA0B620B730B840BBAF038
:102850009150A1F0FF0FBB1F661F771F881FC2F7A3
:102860000EC0BA0F621F731F841F48F487957795B7
:102870006795B795F7959E3F08F0B0CF9395880F71
:1028800008F09927EE0F9795879508950E946B138E
:1028900088F09F5798F0B92F9927B751B0F0E1F021
:1028A000660F771F881F991F1AF0BA95C9F714C0D1
:1028B000B13091F00E948513B1E008950C94851316
:1028C000672F782F8827B85F39F0B93FCCF386950A
:1028D00077956795B395D9F73EF490958095709567
:1028E00061957F4F8F4F9F4F0895EE0FFF1F05900B
:1028F000F491E02D0994CF93DF938230910510F489
:1029000082E090E0E091E002F091E10220E030E02E
:10291000C0E0D0E0309711F140815181481759074C
:10292000C0F04817590761F482819381209719F00C
:102930009B838A832BC09093E1028093E00226C0A0
:102940002115310519F04217530718F49A01BE01F9
:10295000DF01EF010280F381E02DDCCF211531058D
:1029600009F1281B390B2430310590F412968D9112
:102970009C9113976115710521F0FB01938382836C
:1029800004C09093E1028093E002FD01329644C0BE
:10299000FD01E20FF31F81939193225031092D9392
:1029A0003C933AC02091DE023091DF02232B41F4A8
:1029B00020910E0130910F013093DF022093DE024F
:1029C00020910C0130910D012115310541F42DB7F5
:1029D0003EB74091100150911101241B350BE0913D
:1029E000DE02F091DF02E217F307A0F42E1B3F0B8B
:1029F0002817390778F0AC014E5F5F4F2417350771
:102A000048F04E0F5F1F5093DF024093DE02819328
:102A1000919302C0E0E0F0E0CF01DF91CF91089503
:102A20000F931F93CF93DF93009709F48CC0FC01A1
:102A30003297138212820091E0021091E102011597
:102A4000110581F420813181820F931F2091DE02D4
:102A50003091DF022817390779F5F093DF02E09310
:102A6000DE0271C0D80140E050E0AE17BF0750F45D
:102A700012962D913C911397AD012115310509F165
:102A8000D901F3CF9D01DA01338322836081718103
:102A9000860F971F8217930769F4EC01288139810B
:102AA000260F371F2E5F3F4F318320838A819B8102
:102AB00093838283452B29F4F093E102E093E002B3
:102AC00042C01396FC93EE931297ED0149915991F0
:102AD0009E01240F351FE217F30771F48081918165
:102AE000840F951F029611969C938E9382819381F9
:102AF00013969C938E931297E0E0F0E0D801129623
:102B00008D919C911397009719F0F8018C01F6CFE5
:102B10008D919C9198012E5F3F4F820F931F2091C2
:102B2000DE023091DF022817390769F4309729F463
:102B30001092E1021092E00202C0138212821093FE
:102B4000DF020093DE02DF91CF911F910F91089574
:102B5000A0E0B0E0EEEAF5E10C94A613EC010097DA
:102B600021F4CB010E947B14B8C0FC01E60FF71FD3
:102B70009C0122503109E217F30708F4ACC0D901D7
:102B80000D911C91119706171707B0F0053011052C
:102B900008F49FC0C80104978617970708F499C0E6
:102BA00002501109061B170B019311936D937C932F
:102BB000CF010E9410158DC05B01A01AB10A4C0113
:102BC000800E911EA091E002B091E10240E050E041
:102BD000E12CF12C109709F44AC0A815B905D1F5DC
:102BE0006D907C901197630182E0C80ED11CCA14CD
:102BF000DB0480F1A3014A195B096A0182E0C80E77
:102C0000D11C1296BC9012971396AC91B5E0CB16DE
:102C1000D10440F0B282A38351834083D9016D93E4
:102C20007C930AC00E5F1F4FC301800F911FF901F3
:102C300091838083EB2DFA2FE114F10431F0D70159
:102C40001396FC93EE93129744C0F093E102E09345
:102C5000E0023FC08D919C9111974817590708F4E5
:102C6000AC017D0112960D90BC91A02DB3CF809147
:102C7000DE029091DF0288159905E1F446175707A7
:102C8000C8F480910C0190910D01009741F48DB72B
:102C90009EB74091100150911101841B950BE817CC
:102CA000F907C8F4F093DF02E093DE02F9017183C3
:102CB00060830FC0CB010E947B147C01009759F008
:102CC000A801BE010E947716CE010E941015C7010F
:102CD00004C0CE0102C080E090E0CDB7DEB7EEE0E8
:102CE0000C94C21381E090E0F8940C943519FB0128
:102CF000DC0102C001900D9241505040D8F7089578
:102D0000FB01DC0101900D920020E1F70895AEE097
:102D1000B0E0EDE8F6E10C94B0130D891E898F89BF
:102D2000988D26E02C831A83098397FF02C080E0E8
:102D300090E801979E838D83AE01455E5F4F698D5C
:102D40007A8DCE0101960E94B7164D815E8157FDA6
:102D50000AC02F813885421753070CF49A01F801F5
:102D6000E20FF31F10822E96E4E00C94CC13ACE03B
:102D7000B0E0EDEBF6E10C94A2137C016B018A014B
:102D8000FC0117821682838181FFBDC1CE010196AD
:102D90004C01F7019381F60193FD859193FF819199
:102DA0006F01882309F4ABC1853239F493FD859115
:102DB00093FF81916F01853229F4B70190E00E9461
:102DC0009F18E7CF512C312C20E02032A0F48B3219
:102DD00069F030F4803259F0833269F420612CC0FC
:102DE0008D3239F0803339F4216026C022602460AE
:102DF00023C0286021C027FD27C030ED380F3A30AE
:102E000078F426FF06C0FAE05F9E300D1124532EA1
:102E100013C08AE0389E300D1124332E20620CC07E
:102E20008E3221F426FD6BC1206406C08C3611F46D
:102E3000206802C0883641F4F60193FD859193FF26
:102E400081916F018111C1CF982F9F7D955493304F
:102E500028F40C5F1F4FFFE3F9830DC0833631F078
:102E6000833771F0833509F05BC022C0F80180819F
:102E700089830E5F1F4F44244394512C540115C085
:102E80003801F2E06F0E711CF801A080B18026FFBE
:102E900003C0652D70E002C06FEF7FEFC5012C8786
:102EA0000E9494182C0183012C852F77222E17C0A5
:102EB0003801F2E06F0E711CF801A080B18026FF8E
:102EC00003C0652D70E002C06FEF7FEFC5012C8756
:102ED0000E9489182C012C852068222E830123FC56
:102EE0001BC0832D90E048165906B0F4B70180E26C
:102EF00090E00E949F183A94F4CFF50127FC859149
:102F000027FE81915F01B70190E00E949F18311068
:102F10003A94F1E04F1A51084114510471F7E5C099
:102F2000843611F0893639F5F80127FF07C0608132
:102F30007181828193810C5F1F4F08C06081718114
:102F4000072E000C880B990B0E5F1F4F2F76722EE9
:102F500097FF09C090958095709561957F4F8F4F31
:102F60009F4F2068722E2AE030E0A4010E94D718FB
:102F7000A82EA81844C0853729F42F7EB22E2AE047
:102F800030E025C0F22FF97FBF2E8F36C1F018F444
:102F9000883579F0B4C0803719F0883721F0AFC098
:102FA0002F2F2061B22EB4FE0DC08B2D8460B82E61
:102FB00009C024FF0AC09F2F9660B92E06C028E0E2
:102FC00030E005C020E130E002C020E132E0F8014D
:102FD000B7FE07C060817181828193810C5F1F4FB2
:102FE00006C06081718180E090E00E5F1F4FA401F8
:102FF0000E94D718A82EA818FB2DFF777F2E76FEEB
:103000000BC0372D3E7FA51450F474FE0AC072FC2D
:1030100008C0372D3E7E05C0BA2C372D03C0BA2C10
:1030200001C0B52C34FF0DC0FE01EA0DF11D8081F9
:10303000803311F4397E09C032FF06C0B394B394D3
:1030400004C0832F867809F0B39433FD13C030FF9A
:1030500006C05A2CB31418F4530C5B18B32CB314D9
:1030600068F4B70180E290E03C870E949F18B39417
:103070003C85F5CFB31410F43B1801C0312C34FF5C
:1030800012C0B70180E390E03C870E949F183C8506
:1030900032FF17C031FD03C088E790E002C088E529
:1030A00090E0B7010CC0832F867859F031FF02C041
:1030B0008BE201C080E237FD8DE2B70190E00E9413
:1030C0009F18A51438F4B70180E390E00E949F1880
:1030D0005A94F7CFAA94F401EA0DF11D8081B7014B
:1030E00090E00E949F18A110F5CF332009F451CE33
:1030F000B70180E290E00E949F183A94F6CFF70162
:103100008681978102C08FEF9FEF2C96E2E10C94AD
:10311000BE13FC010590615070400110D8F78095F6
:1031200090958E0F9F1F0895FC0161507040019093
:103130000110D8F7809590958E0F9F1F08950F93DB
:103140001F93CF93DF93FB01238121FD03C08FEFFA
:103150009FEF28C022FF16C0468157812481358108
:103160004217530744F4A081B1819D012F5F3F4F67
:10317000318320838C93268137812F5F3F4F3783A4
:10318000268310C0EB01092F182F0084F185E02D54
:103190000995892BE1F68E819F8101969F838E830D
:1031A000812F902FDF91CF911F910F910895FA01F8
:1031B000AA27283051F1203181F1E8946F936E7F76
:1031C0006E5F7F4F8F4F9F4FAF4FB1E03ED0B4E067
:1031D0003CD0670F781F891F9A1FA11D680F791FA8
:1031E0008A1F911DA11D6A0F711D811D911DA11DB9
:1031F00020D009F468943F912AE0269F11243019C9
:10320000305D3193DEF6CF010895462F4770405D63
:103210004193B3E00FD0C9F7F6CF462F4F70405D12
:103220004A3318F0495D31FD4052419302D0A9F76D
:10323000EACFB4E0A6959795879577956795BA9567
:10324000C9F700976105710508959B01AC010A2E2D
:1032500006945795479537952795BA95C9F7620F04
:10326000731F841F951FA01D089510E0C3EFD0E0C9
:1032700004C0FE010E9475142196C43FD107C9F70E
:04328000F894FFCFF0
:10328400FFFFFFFF00E10000000000000000E20279
:10329400800000C1808100000009000A00050004CC
:1032A400000D0006000B000C0016001700010000C2
:1032B40000120013001400150000000000E901CC06
:1032C400024C03FF010A0274035003000000008E45
:1032D40002A20742422D34303000213030253032F2
:1032E4005830300021253034583030003E253034F9
:1032F4005800253031306C750025303575003F3F5E
:103304003F000D0A00343025303258253032580041
:00000001FF
