:100000000C94F7000C941F010C941F010C941F0119
:100010000C941F010C941F010C941F010C941F01E0
:100020000C941F010C941F010C9434040C94A6042E
:100030000C941F010C941F010C941F010C941F01C0
:100040000C941F010C941F010C941F010C941F01B0
:100050000C941F010C9460080C941F010C94900BDD
:100060000C941F010C941F010C941F010C941F0190
:100070000C941F010C941F010C941F010C941F0180
:100080000C941F010C941F010C941F010C941F0170
:100090000C941F010C941F010C941F010C941F0160
:1000A0000C941F010C941F010C941F016A096D0927
:1000B0005C09600966098E098E098E097109750946
:1000C00079097F0983098E0989093F0D00312E3096
:1000D0002E31330021303142422D3430300D002199
:1000E0003031002130310D003F30310D00080B0060
:1000F00002020201000904000001020200000524BE
:100100000010010524010101042402060524060053
:10011000010705810310004009040100020A0000E4
:1001200000070502024000000705830240000004AA
:1001300003090412010002EF02014041233780004D
:10014000010102030141726475696E6F204C4C43DA
:100150000041726475696E6F204D6963726F0000B3
:10016000000000240027002A002D003000000000BD
:1001700000250028002B002E003100000000002385
:1001800000260029002C002F0004040404040304AA
:100190000502020202040302020202060606060625
:1001A0000604040202020404040802011040804014
:1001B000102040804080080204018040201002018D
:1001C000108010204040200000000200090F0000B5
:1001D000030401000C00000000000000000000000B
:1001E0000000000000003E0D0000D812D0121124C3
:1001F0001FBECFEFDAE0DEBFCDBF23E0AAEBB1E058
:1002000001C01D92AE33B207E1F711E0A0E0B1E00A
:10021000EEE0F4E302C005900D92AA3BB107D9F7D6
:1002200010E0C6EFD0E004C02197FE010E94371510
:10023000C53FD107C9F70E94030C0C94FA190C941E
:10024000000008954091C3015091C4012091C10163
:100250003091C20142175307B4F49091E8009570B1
:10026000E1F39091E80092FD19C08093F100809134
:10027000C3019091C40101968F739927892B19F4BA
:100280008EEF8093E8008091C3019091C4010196A4
:100290009093C4018093C30181E0089580E00895A4
:1002A000DF92EF92FF920F931F93CF93DF93D82E9D
:1002B000F92EE42E062F10E0C8010196880F0E9447
:1002C000220183E00E942201CD2DDF2D0C0F1D1F86
:1002D000C017D10789F0E7FE03C0FE01849101C079
:1002E00088810E942201F82E80E00E9422018F2145
:1002F00021968111EDCF01C081E0DF91CF911F9157
:100300000F91FF90EF90DF900895DF92EF92FF92B0
:100310000F931F93CF93DF93D82E8A017B01E40EB6
:10032000F51EEB01CE15DF0571F0D7FE03C0FE010F
:10033000849101C088810E94220121968111F2CF0F
:100340008FEF9FEF01C0C801DF91CF911F910F91F7
:10035000FF90EF90DF900895615030F02091F10010
:10036000FC0120830196F8CF289A84E68093C70188
:100370000895CF92DF92EF92FF920F931F93CF9346
:10038000DF936C017A018B01C0E0D0E0CE15DF0570
:1003900081F0D8016D918D01D601ED91FC91019014
:1003A000F081E02DC6010995892B11F02196EECF41
:1003B0007E01C701DF91CF911F910F91FF90EF90C8
:1003C000DF90CF900895CF93DF931F92CDB7DEB724
:1003D0006983DC01ED91FC910280F381E02D41E025
:1003E00050E0BE016F5F7F4F09950F90DF91CF9175
:1003F000089583E08093E9008091F200882319F04A
:100400008AE38093E8000895FC018485958597FD33
:100410000BC09FB7F89482E08093E9008091F200CE
:100420009FBF90E0019608959FB7F89482E0809373
:10043000E9008091F2009FBF90E0089580E090E095
:1004400008950E9424170F931F93CF93DF931F9259
:10045000CDB7DEB782E0898342E450E06DEE70E014
:1004600080E80E9485010E94CA0ADC0112960D9163
:100470001C9113970115110589F0D801ED91FC919C
:100480000280F381E02DBE016F5F7F4FC8010995A7
:1004900097FD04C0F80100851185ECCF89810F908C
:1004A000DF91CF911F910F9108958F929F92AF92FC
:1004B000BF92CF92DF92EF92FF920F931F93CF9351
:1004C000DF936C017B018A0180910B01882309F481
:1004D00058C08091C801882309F453C08091BA01A3
:1004E00080FF05C08091E00082608093E000E80119
:1004F000B12C8AEFA82E93E0892E2AE3922E209722
:1005000011F4BB20B9F10E949F0A811106C0AA9480
:10051000AA20B9F10E94B00AF2CF282F30E0C2170A
:10052000D3070CF48C2F9FB7F8948092E9002091A8
:10053000E80025FF1DC0282F30E0C21BD30BF701B8
:10054000815020F041914093F100FACFE20EF31E6A
:10055000BB2019F09092E8000AC08091E80085FD68
:1005600007C09092E800BB24B394209709F0B12C07
:100570009FBFC5CF5D9A84E68093C6011016110611
:1005800044F081E090E0F6019383828380E090E084
:1005900001C0C801DF91CF911F910F91FF90EF90A3
:1005A000DF90CF90BF90AF909F908F9008950E9462
:1005B0009F0A90E008950F931F93CF93DF931F92AC
:1005C000CDB7DEB78C01FC018485958597FF0EC001
:1005D000CE0101960E94710A019719F4898190E079
:1005E00002C08FEF9FEFF80195878487F80184851B
:1005F00095850F90DF91CF911F910F910895CF9323
:10060000DF931F92CDB7DEB7FC018485958597FDFA
:1006100005C02FEF3FEF358724870BC0CE01019631
:100620000E94710A019719F4898190E002C08FEF4E
:100630009FEF0F90DF91CF910895862F642F0C9438
:10064000480BFC0181850E94DE0A21E0892B09F418
:1006500020E0822F08950C944214FC0124813581FE
:100660006217730748F480819181009729F0FC019B
:10067000E60FF71F8081089580E008950F931F9380
:10068000CF93DF938C01EB01FC0180819181009776
:1006900039F06881798161157105A1F40E94D51541
:1006A00088819981F801918380838A819B819383DA
:1006B00082838C819D8195838483198218821B8219
:1006C0001A820FC0F801428153812C813D8142176B
:1006D000530720F30E9432178C819D81F801958386
:1006E00084831D821C82DF91CF911F910F91089509
:1006F0000F931F93CF93DF93EC018881998100972B
:1007000029F02A813B812617370788F48B016F5F18
:100710007F4F0E945E16009761F0998388831B8348
:100720000A832C813D81232B11F4FC01108281E08E
:1007300001C080E0DF91CF911F910F910895EF925A
:10074000FF920F931F93CF93DF936115710511F4FF
:1007500080E01CC041155105C1F07B01EC018C818A
:100760009D818A01080F191FB801CE010E947803EC
:10077000882371F3288139818C819D81B701820F93
:10078000931F0E9432171D830C8381E0DF91CF916C
:100790001F910F91FF90EF900895CF93DF93EC019D
:1007A00088819981009711F00E94D51519821882CD
:1007B0001D821C821B821A82DF91CF910895EF92D5
:1007C000FF920F931F93CF93DF93EC017B018A017C
:1007D000BA010E947803811104C0CE010E94CD03AA
:1007E00007C01D830C83B701888199810E9432174D
:1007F000CE01DF91CF911F910F91FF90EF9008955F
:10080000FC01808191810C94D515FB01DC011196CE
:100810001C921E9213961C921E92129715961C9271
:100820001E9214978617970749F0608171816115B0
:10083000710521F0448155810C94DF030895FC017A
:100840001182108213821282158214826115710541
:1008500051F0FB0101900020E9F73197AF01461BF1
:10086000570B0C94DF0308951F920F920FB60F924F
:1008700011248F939F938091E1009091E100937FE9
:100880009093E10083FF0FC01092E90091E09093F4
:10089000EB001092EC0092E39093ED001092C801EF
:1008A00098E09093F00082FF20C093E09093E900DD
:1008B0009091F200992319F09AE39093E8009091B7
:1008C000C601992339F09091C60191509093C601C9
:1008D000992389F19091C701992339F09091C7012B
:1008E00091509093C701992341F184FF10C08091EA
:1008F000E2008E7E81608093E2008091E1008F7E35
:100900008093E1008091BA018E7E806111C080FFEA
:1009100016C08091E2008E7E80618093E20080911B
:10092000E1008E7E8093E1008091BA018E7E81602D
:100930008093BA0104C05D98CDCF2898D6CF9F91FF
:100940008F910F900FBE0F901F9018951F920F92CE
:100950000FB60F921124CF92DF92EF92FF920F9376
:100960001F932F933F934F935F936F937F938F9337
:100970009F93AF93BF93EF93FF93CF93DF93CDB745
:10098000DEB76C97DEBFCDBF1092E9008091E80022
:1009900083FFFBC168E0CE0145960E94AC0182EF67
:1009A0008093E8008D8987FF05C09091E80090FF53
:1009B000FCCF03C09EEF9093E800982F907609F04B
:1009C000C6C09E894F89588D2F89F88C91110CC013
:1009D000803829F48091BB018093F10002C010920D
:1009E000F1001092F10045C1913051F4811141C1E3
:1009F0004130510509F03DC18091BB018D7F0BC095
:100A0000933061F4811135C14130510509F031C194
:100A10008091BB0182608093BB012BC1953049F46A
:100A20008091E80080FFFCCF822F80688093E300F4
:100A300020C1963009F05EC00B8D1C8D22E0109213
:100A4000E9001092C4011092C301F21232C0109258
:100A5000C2011092C1010E94230299E0BE016F5FA2
:100A60007F4FDB01E92F1D92EA95E9F79983FA821E
:100A700091E09E8390EA98879AEF99872091C3012D
:100A80003091C401275F3F4F3C832B838D831092AD
:100A9000E9001092C4011092C3011093C2010093A7
:100AA000C10149E050E080E00E9485010E942302DC
:100AB000E0C01093C2010093C1010E94CA0ADC0188
:100AC00012960D911C9113970115110509F4BBC0E5
:100AD000D801ED91FC910480F581E02DBE016B5EA3
:100AE0007F4FC8010995009709F0C7C0F80100853C
:100AF0001185EACF973009F445C1983021F481E09F
:100B00008093F100B6C0993009F0B3C0837009F04A
:100B100039C1E3E3F1E081E031E096E32081211186
:100B200009C08EE78093EA001092EA008F898093D3
:100B3000C8019FC08093E9003093EB00219120937E
:100B4000EC009093ED008F5F873041F7EACF8B8DFB
:100B50009C8D1092E9001092C4011092C3019093F1
:100B6000C2018093C101898D811153C08E899D89F5
:100B7000913A49F4813209F005C147E050E064E060
:100B800071E080E0BBC0913209F0FCC0833269F4AF
:100B90008F89988DA0E0B0E08093000190930101CF
:100BA000A0930201B093030164C0803269F4809184
:100BB000E80082FFFCCF67E084E091E00E94AC0196
:100BC0008BEF8093E80055C0823209F052C08F89C4
:100BD00080930B01EEEFFFE7859194918B3F9C4D45
:100BE00019F0E0E0F8E002C0EEEFFAE080910401D5
:100BF00090910501A0910601B0910701803B9440BE
:100C0000A105B10509F09EC080910B0180FF79C05C
:100C100099C00E94CA0AFC010281138101151105C5
:100C200009F4B0C0D801ED91FC910190F081E02D64
:100C3000BE016B5E7F4FC801099581111AC0F80192
:100C400000851185EBCFF1E0FF1609F44EC0F3E00B
:100C5000FF1298C08F89882309F44AC0823089F432
:100C600040E86DE081E591E00E945001882309F49D
:100C700089C08EEF8093E80088C018161906CCF35F
:100C800081C0813029F440E86BE085E491E0ECCF4D
:100C9000833009F077C00E94CA0ADC011296ED90F9
:100CA000FC9013978E010F5F1F4F6801E114F10450
:100CB00079F0D701ED91FC910680F781E02DB80124
:100CC000C7010995080F111DF701E084F184EECFEB
:100CD000D8011C92F60101900020E9F73197BF017D
:100CE0006C197D0940E0C601BFCF63E371E002C02B
:100CF0006FE271E0FB01449150E080E80E948501C1
:100D0000B8CFEE3F2AE0F20751F08081918187371A
:100D1000A7E79A0721F09093FF0A8093FE0A87E7DE
:100D200097E791838083809160008093C5019BE069
:100D300088E10FB6F894A895809360000FBE909359
:100D4000600097CF808191818737974709F091CFD5
:100D5000A895809160008861809360008091C501B2
:100D600080936000EE3FBAE0FB0739F08091FE0A05
:100D70009091FF0A918380837CCF1092FF0A10929A
:100D8000FE0A77CF81E28093EB006C960FB6F89461
:100D9000DEBF0FBECDBFDF91CF91FF91EF91BF912D
:100DA000AF919F918F917F916F915F914F913F9103
:100DB0002F911F910F91FF90EF90DF90CF900F90A8
:100DC0000FBE0F901F9018951F93CF93DF93EC01E8
:100DD000162F0E944214181739F0612FCE01DF91AF
:100DE000CF911F910C944A14DF91CF911F910895D8
:100DF00088EE90E00C94C60983EE90E00C94C6094E
:100E00008FED90E00C94C609CF92DF92EF92FF92A3
:100E10000F931F93CF93DF9300D000D000D0CDB7B6
:100E2000DEB782E190E00E942B038095807AD82E75
:100E30008093BC0183E190E00E942B039DEF980F0B
:100E4000983008F08AE08093BD0109E112E084E166
:100E5000E82EF12CCD2CCC1CCC24CC1CF801C78A5C
:100E6000C7010E942B03D82EC70101960E942B03B5
:100E70006D2D70E0782B60957095F801748B638B05
:100E80006115710519F41486138615C080E090E091
:100E90000E94471320E030E04AE75FE30E9484139A
:100EA00020E030E040E85FE30E9490140E94FC14D0
:100EB000F80174876387005E1F4FF2E0EF0EF11CAC
:100EC00084E2E816F10451F664E871E0CE0101967F
:100ED0000E941F04BE016F5F7F4F89E193E00E9473
:100EE0003E03CE0101960E9400046AE070E089E1B1
:100EF00093E00E94780308E010E0C8010E942B03F1
:100F000090EE980F9F35C0F080911D0390911E03C5
:100F1000892B19F563EB71E0CE0101960E941F0445
:100F2000BE016F5F7F4F89E193E00E943E03CE01D7
:100F300001960E94000411C089831A8241E050E0AA
:100F4000BE016F5F7F4F89E193E00E949F030F5FB7
:100F50001F4F0231110589F6D7CF26960FB6F894A8
:100F6000DEBF0FBECDBFDF91CF911F910F91FF90DC
:100F7000EF90DF90CF9008951F93CF93DF93EC0114
:100F8000162F662331F0888D811105C088818A8FE4
:100F900002C060E001C061E08B810E94190B888D66
:100FA000181711F081E08F8F188FDF91CF911F916B
:100FB0000895EF92FF920F931F93CF93DF9309E170
:100FC00012E0C0E0D0E0E82EF12CB7010C2E02C0F8
:100FD000759567950A94E2F76170C8010E94BC0795
:100FE0002196005E1F4FC830D10579F7DF91CF9170
:100FF0001F910F91FF90EF900895CF92DF92EF92A3
:10100000FF920F931F93CF93DF9392E2C92E91E04B
:10101000D92EC9E1D2E022E1E22E21E0F22E00E059
:1010200010E0F60180819181F2E0CF0ED11C89831E
:101030009A8360E00E94480B89818E871D86CE01CD
:1010400005960E942103882319F08D8583608D8782
:101050000E94840B6F83788789879A878B899C8904
:101060009C878B87F70180819181F2E0EF0EF11C64
:101070008B839C8360E00E94190B61E08B810E944E
:10108000480B188E1A8EF80185E0EE0FFF1F8A9527
:10109000E1F7E75EFD4F178E0F5F1F4FA0960830F8
:1010A000110509F0BECF80E00E94D907DF91CF91F2
:1010B0001F910F91FF90EF90DF90CF900C94040759
:1010C0001F920F920FB60F9211248F929F92AF92A0
:1010D000BF92CF92DF92EF92FF920F931F932F93C5
:1010E0003F934F935F936F937F938F939F93AF93B0
:1010F000BF93CF93DF93EF93FF938091C0018F5FF6
:101100008093C001C9E1D2E0E12CF12C11E002E0B2
:1011100024E6D22E8D858B7F8D87CE0105960E9489
:101120002103C82E8D8586958170C81651F00E94C6
:10113000840B6F83788789879A878D8580278D8731
:1011400029C00E94840B8F809884A984BA84AB0143
:10115000BC01481959096A097B098B859C85A0E067
:10116000B0E0481759076A077B07A0F08D858170AA
:10117000C81681F00E94840B6F83788789879A87CD
:101180008D85812784608D870E94840B6F87788B83
:10119000898B9A8B8D852F89982F9170222321F02E
:1011A0008570853091F405C091110FC082FF1DC07C
:1011B00010C04B8D5C8D6D8D7E8D4F5F5F4F6F4F7F
:1011C0007F4F4B8F5C8F6D8F7E8F992371F01D8BBE
:1011D0000DC04B8D5C8D6D8D7E8D4F5F5F4F6F4F62
:1011E0007F4F4B8F5C8F6D8F7E8F1E8B898D891704
:1011F00051F0998FF70195E0EE0FFF1F9A95E1F7F7
:10120000E75EFD4F178F8A8D882319F081508A8FF2
:1012100008C0888D882329F089810E94DE0A892BE5
:10122000C1F58091C0016D2D0E942B1591110BC04D
:10123000F70185E0EE0FFF1F8A95E1F7E75EFD4FAE
:10124000878D81112BC08FEFE81AF80AA09688E0ED
:10125000E816F10409F05ECFFF91EF91DF91CF9195
:10126000BF91AF919F918F917F916F915F914F91BE
:101270003F912F911F910F91FF90EF90DF90CF90B2
:10128000BF90AF909F908F900F900FBE0F901F90C8
:10129000189560E0CE010E94BC07C3CF1093BE0139
:1012A000178ED1CF90E0FC013197EF30F105B0F50A
:1012B000EA5AFF4F0C943715809180008F7703C056
:1012C000809180008F7D80938000089580918000C0
:1012D000877FF9CF84B58F7702C084B58F7D84BDB9
:1012E0000895809190008F7707C0809190008F7D46
:1012F00003C080919000877F809390000895809133
:10130000C0008F7703C08091C0008F7D8093C000A4
:1013100008958091C200877F8093C20008953FB7EF
:10132000F89480912A0390912B03A0912C03B09103
:101330002D0326B5A89B05C02F3F19F00196A11DCE
:10134000B11D3FBFBA2FA92F982F8827820F911D5B
:10135000A11DB11DBC01CD0142E0660F771F881FA2
:10136000991F4A95D1F70895009769F0FC01019003
:101370000020E9F73197AF01481B590BBC0189ECFC
:1013800091E00C94550280E090E008950F931F9334
:10139000CF93DF938C01C0E0D0E0F801EC0FFD1F8C
:1013A0006491662341F089EC91E00E94E301892B6E
:1013B00011F02196F2CFCE01DF91CF911F910F91C5
:1013C0000895CF92DF92EF92FF920F931F93CF93E6
:1013D000DF936C01FC01E480F580EB018B01040FCD
:1013E000151FC017D1078CF4CE15DF0574F4BE01AC
:1013F000C6010E942D0390ED980F9A3020F08F7D4A
:101400008154863020F42196ECCF81E001C080E049
:10141000DF91CF911F910F91FF90EF90DF90CF90D0
:1014200008954F925F926F927F928F929F92AF92A8
:10143000BF92CF92DF92EF92FF920F931F93CF93C1
:10144000DF937C01FC01C480D580EB01412C512C41
:1014500032018B01040F151FC017D1077CF5CC1585
:10146000DD0564F5BE01C7010E942D0320ED280FA4
:1014700094E0440C551C661C771C9A95D1F7082EF5
:10148000000C990B2A3068F44C01F0E38F1A910894
:10149000092C000CAA08BB08482859286A287B2870
:1014A0000BC0C7978F709927AC01990F660B770B0C
:1014B000442A552A662A772A2196CECFC301B20143
:1014C000DF91CF911F910F91FF90EF90DF90CF9020
:1014D000BF90AF909F908F907F906F905F904F9054
:1014E00008952091C801211103C08FEF9FEF089547
:1014F0005FB7F89422E02093E9002091F20030E0F9
:101500001216130614F421E030E0422FFC0184E6A9
:10151000415038F0289A8093C7019091F10091933F
:10152000F7CF2115310521F08091F200882319F0C1
:101530005FBFC90108958BE68093E800F9CF2FB70C
:10154000F89483E08093E9009091E800892F8072FD
:1015500095FF04C09091F20080E4891B2FBF08958D
:10156000CF92DF92EF92FF920E948F096B017C0174
:101570000E948F09DC01CB018C199D09AE09BF09BE
:10158000883E9340A105B10598F3FF90EF90DF905E
:10159000CF9008958091320381110DC082E0809335
:1015A0002E0384E080932F031092310310923003B6
:1015B00081E0809332038EE293E00895CF93DF932E
:1015C000282F30E0F901E953FE4F8491F901E855E5
:1015D000FE4FD491F901E757FE4FC491CC2391F00F
:1015E00081110E945209EC2FF0E0EE0FFF1FE55829
:1015F000FE4FA591B491EC91ED2381E090E021F4B0
:1016000080E002C080E090E0DF91CF910895FC017E
:1016100023893489232B41F481810E94DE0A21E051
:10162000892B29F420E003C0FC0125852170822F3D
:1016300008951F93CF93DF93282F30E0F901E953EA
:10164000FE4F8491F901E855FE4FD491F901E75717
:10165000FE4FC491CC23C1F0162F81110E94520974
:10166000EC2FF0E0EE0FFF1FE359FE4FA591B49170
:101670009FB7F894111104C08C91D095D82302C063
:10168000EC91DE2BDC939FBFDF91CF911F910895EA
:10169000CF93DF9390E0FC01E855FE4F2491FC01CD
:1016A000E757FE4F8491882361F190E0880F991FDE
:1016B000FC01E15AFE4FC591D491FC01E359FE4F64
:1016C000A591B491611109C09FB7F89488812095C4
:1016D00082238883EC912E230BC0623061F49FB784
:1016E000F8948881322F309583238883EC912E2BB8
:1016F0002C939FBF06C08FB7F894E8812E2B2883C8
:101700008FBFDF91CF9108952FB7F8946091260392
:101710007091270380912803909129032FBF08958A
:101720001F920F920FB60F9211242F933F938F9316
:101730009F93AF93BF938091260390912703A0912D
:101740002803B09129033091250323E0230F2D377F
:1017500020F40196A11DB11D05C026E8230F0296B5
:10176000A11DB11D20932503809326039093270389
:10177000A0932803B093290380912A0390912B030F
:10178000A0912C03B0912D030196A11DB11D809352
:101790002A0390932B03A0932C03B0932D03BF91A6
:1017A000AF919F918F913F912F910F900FBE0F900E
:1017B0001F901895CF93DF9300D000D000D0CDB705
:1017C000DEB76FE173E0CE0101960E94050442E0AE
:1017D00050E063E070E0CE0101960E94110A862F6E
:1017E0000E94D907CE0101960E94000486EE91E086
:1017F0000E94C60926960FB6F894DEBF0FBECDBF75
:10180000DF91CF910895CF93DF93CDB7DEB7C05866
:10181000D1090FB6F894DEBF0FBECDBF789484B562
:10182000826084BD84B5816084BD85B5826085BDDC
:1018300085B5816085BD80916E00816080936E006A
:10184000109281008091810082608093810080915C
:10185000810081608093810080918000816080930D
:10186000800080919100826080939100809191002E
:1018700081608093910080919000816080939000BE
:101880008091C10084608093C1008091C10082601A
:101890008093C1008091C10081608093C1008091DC
:1018A000C30081608093C3008091C00082608093F8
:1018B000C0008091C20081608093C20080917A0054
:1018C000846080937A0080917A00826080937A00AD
:1018D00080917A00816080937A0080917A0080689C
:1018E00080937A001092C8011092BB011092BA0145
:1018F0008091D70081608093D70080EA8093D800E0
:1019000089B5806189BD89B5826089BD09B400FE51
:10191000FDCF0E94B00A8091D8008F7C80618093B7
:10192000D8008091E000807F8093E0008091E1000A
:101930008E7E8093E1008DE08093E200559A209A9C
:101940005D98289885B7806885BF85BF85BF0E9450
:10195000FD078FEA87BD80916E00826080936E00E4
:101960008FEF9FEF9093D6018093D50164E871E0EB
:101970008E010F5F1F4FC8010E941F04B8018FE145
:1019800093E00E943E03C8010E94000469E270E0F7
:101990008FE193E00E947803CC24C3948EE0682EFC
:1019A00082E0782E8091BE01882309F499C0B9EFB6
:1019B000AB2EB2E0BB2EE12CF12CEE0CFF1CD501BE
:1019C00058968C91882311F06894F0F8C5010E9414
:1019D000070B882311F06894E0F8B0E2AB1AB10865
:1019E000E9EFF1E0EA15FB0541F789E192E05E01DC
:1019F000F1E6AF0EB11C9501205E3F4FF501D0908E
:101A00006E0040916E004D7F40936E00DC015B964E
:101A10004D915D916D917C915E97D0926E00D50154
:101A20004D935D936D937D935D018096A217B307EF
:101A300031F7878D8F93868D8F93858D8F93848DCE
:101A40008F93838D8F93828D8F93818D8F93808DD4
:101A50008F9387898F9386898F9385898F938489C4
:101A60008F9383898F9382898F9381898F938089C4
:101A70008F9387858F9386858F9385858F938485B4
:101A80008F9383858F9382858F9381858F938085B4
:101A90008F9387818F9386818F9385818F938481A4
:101AA0008F9383818F9382818F9381818F938081A4
:101AB0008F93FF92EF92E3E5F1E0FF93EF931F9294
:101AC00080E68F931F930F930E9439170FB6F894F7
:101AD000DEBF0FBECDBFC8010E94B4091092BE0187
:101AE00089EC91E00E940402892B09F494C089ECEE
:101AF00091E00E94FF02D82E5DE0851305C0809121
:101B0000BF018A3091F507C08AE0D81207C08091E2
:101B1000BF018D3051F51092BF017DC098E0D916FC
:101B200019F0AFE7DA121BC0209123033091240390
:101B3000121613060CF06DC0C901019782179307A6
:101B400008F067C020911F03309120039093240375
:101B500080932303F901E80FF91F10825AC0BAE1FC
:101B6000DB123AC064E871E03FC0E0902303F090DC
:101B70002403E3E0EE16F104D8F061E070E08FE1B9
:101B800093E00E942D03803399F462E070E08FE1CE
:101B900093E00E942D03813359F460E070E08FE1FF
:101BA00093E00E942D038B32E9F5F1E0F0933802C7
:101BB00064E871E0C8010E941F04B8018FE193E05E
:101BC0000E943E03C8010E94000469E270E08FE1B8
:101BD00093E00E9478031DC0809123039091240319
:101BE000899770F063EA71E0C8010E941F04B80190
:101BF0008FE193E00E943E03C8010E94000409C0E7
:101C0000D9821A8241E050E0B8018FE193E00E944E
:101C10009F03D092BF01E0E0F0E0309709F4C2CE1C
:101C20000995BACE853209F06CC02BE0E216F104BA
:101C3000C9F56FE173E0C8010E94050448E050E077
:101C400063E070E0C8010E94E109F82EC8010E941B
:101C50000004FF2039F16FE173E0C8010E94050420
:101C600042E050E065E070E0C8010E94110AE62EF3
:101C7000C8010E9400046FE173E0C8010E940504DE
:101C800042E050E067E070E0C8010E94110AF62EC1
:101C9000C8010E94000430E4E31204C08DEF8F0DF0
:101CA000883018F00E94F80683CFF092BD016FE1F2
:101CB00073E0C8010E94050442E050E069E070E072
:101CC000C8010E94110A607A6093BC01C8010E9499
:101CD00000046091BC01862F881F8827881FE9E1D6
:101CE000F2E0878BB09643E0E931F407D1F76095D5
:101CF00082E190E00E94E4066091BD0183E190E002
:101D000063C2843209F0C8C054E0E516F10461F4FE
:101D100063E070E08FE193E00E942D038D3409F4BD
:101D2000C5C28634B9F4E2C2E5E0EE16F10491F4DE
:101D300063E070E08FE193E00E942D038D3409F49D
:101D4000E1C363E070E08FE193E00E942D038334F0
:101D500009F4E2C380912303909124038530910517
:101D600009F0CFC263E070E08FE193E00E942D03A1
:101D70008C3409F04CC064E070E08FE193E00E9485
:101D80002D0390ED980F923008F041C0EEE0F3E0A3
:101D900090E0990F813311F4208101C0218121113C
:101DA0009160B0976E167F06A1F71F929F932AE766
:101DB00031E028C0823309F4B9C2863309F072CF0A
:101DC000F9EFAF2EF2E0BF2EE12CF12CEE0CFF1C50
:101DD000D50158968C91882311F06894F0F8C501CC
:101DE0000E94070B882311F06894E0F8B0E2AB1A68
:101DF000B108E9EFAE16E1E0BE0641F7FF92EF92BF
:101E000025E831E03F932F931F9289E041C263E0C0
:101E100070E08FE193E00E942D03833571F564E05B
:101E200070E08FE193E00E942D03813309F03ACFF7
:101E30006FEF88E090E00E94E4066FEF82E190E0AF
:101E40000E94E4066FEF83E190E00E94E40684E1E3
:101E5000E82EF12C6FEFC7010E94E4066FEFC70177
:101E600001960E94E40692E0E90EF11CA4E2EA1653
:101E7000F10481F70E940407A9C1823509F012CF4D
:101E800064E070E08FE193E00E942D03833509F058
:101E900009CF0E94FD078CCE803409F05DC0B3E00D
:101EA000EB16F10431F579EFA72E72E0B72EE12C95
:101EB000F12CEE0CFF1CF501808D882311F0689445
:101EC000F0F8C5010E94070B882311F06894E0F830
:101ED000F0E2AF1AB10829EF31E02A153B0549F7C6
:101EE000FF92EF924EE851E05F934F931F9287E08D
:101EF000CFC1B5E0EB16F104A9F46FE173E0C801BE
:101F00000E94050442E050E063E070E0C8010E94D6
:101F1000E109F82EC8010E940004FF2019F00E9478
:101F2000DA0B46CE8091230390912403079709F0A2
:101F3000B9CE6FE173E0C8010E94050444E050E0AF
:101F400063E070E0C8010E94E109F82EC8010E9418
:101F50000004F110E4CFA6CE833209F0DDC0E4E046
:101F6000EE16F10409F080C06FE173E0C8010E9431
:101F7000050441E050E063E070E0C8010E94E1091F
:101F8000F82EC8010E940004FF2009F46DC06FE123
:101F900073E0C8010E94050441E050E063E070E096
:101FA000C8010E94110AF62EC8010E940004F7E041
:101FB000FF1508F477CE0E9400078091BC01EF2D39
:101FC000F0E085FF2BC090916E0080916E008D7FB8
:101FD00080936E0055E0EE0FFF1F5A95E1F7E75E24
:101FE000FD4FDF015B96838D11962C911197129610
:101FF0003C91129713964C9190936E004F933F93A0
:102000002F938F9325E931E03F932F931F928CE01C
:102010008F931F930F930E9439171FC020916E005A
:1020200080916E008D7F80936E0045E0EE0FFF1F64
:102030004A95E1F7E75EFD4F838D948D20936E0006
:102040009F938F93ADE9B1E0BF93AF931F928CE064
:102050008F931F930F930E9439170FB6F894DEBF2A
:102060000FBECDBFC8014AC18091230390912403C4
:10207000079709F017CE63E070E08FE193E00E94CC
:102080002D03813321F08154823008F00BCE6FE1B3
:1020900073E0C8010E94050441E050E064E070E094
:1020A000C8010E94E109F82EC8010E940004FF2027
:1020B00009F4F8CD6FE173E0C8010E94050441E026
:1020C00050E064E070E0C8010E94110AF62EC801D9
:1020D0000E94000437E03F1508F44DC163E070E052
:1020E0008FE193E00E942D03823409F444C165E03E
:1020F00070E08FE193E00E942D03803309F03BC133
:1021000066E070E08FE193E00E942D0390ED980F60
:10211000923008F030C120C18E3709F049CDC70197
:1021200005970A9708F055C063E070E08FE193E0EF
:102130000E942D038F3409F04CC0912C34E0A32E63
:10214000B12CB5018FE193E00E942D0390EE980F22
:102150009F3508F0A7CD9DED980F933008F4A2CDE0
:102160008E3709F49FCD803211F0992493944FEF6C
:10217000A41AB40AEA14FB0421F7992009F492CDB9
:1021800064E871E0C8010E941F04809123039091CC
:1021900024038530910508F078C1B80189E193E006
:1021A0000E943E03C8010E940004E12CF12C8091A2
:1021B0001D0390911E03D70118965D01E816F906DC
:1021C00008F48EC160E0CD010E94E4060E94FC0686
:1021D000EFCCBAE0EB16F10449F463E070E08FE174
:1021E00093E00E942D03883509F4CAC0809123032F
:1021F00090912403069709F055CD63E070E08FE1DC
:1022000093E00E942D03883509F04CCD64E070E026
:102210008FE193E00E942D03833409F043CD6FE1F9
:1022200073E0C8010E94050441E050E065E070E001
:10223000C8010E94E109F82EC8010E940004FF2095
:1022400009F430CD6FE173E0C8010E94050441E05C
:1022500050E065E070E0C8010E94110AF62EC80146
:102260000E94000427E02F1508F41CCD0E940007EF
:1022700030E2F39EF0011124E75EFD4F84898F93D5
:1022800083898F934FE851E05F934F931F9288E0CB
:102290008F931F930F930E943917C8010E94B409AE
:1022A0000FB6F894DEBF0FBECDBF82CC0E940007F0
:1022B00069E173E0C8010E94050441E050E063E871
:1022C00071E0C8010E949F03882361F04D815E8107
:1022D00069817A8189EC91E00E945502C8010E94CF
:1022E000000466CCC8010E94CD03F0CF0E94000715
:1022F0008DEC90E00E94C60983E891E00E94B40949
:1023000057CC049709F0CECC63E070E08FE193E006
:102310000E942D03833409F04DCDEEE0F3E01082EE
:102320001182B0976E167F06D1F750CF0E9400073A
:102330008091BC011F928F938091BD011F928F935A
:1023400027EA31E03F932F931F9289E08F931F93E9
:102350000F930E943917A1CF61E0813309F060E04B
:10236000A0E2FA9EC0011124875E9D4F0E94BC0727
:1023700086EE91E002C08AEC90E00E94C60918CC7B
:1023800064E070E08FE193E00E942D03833409F054
:102390002DCF6FE173E0C8010E94050445E050E0D5
:1023A00065E070E0C8010E94E109F82EC8010E94B2
:1023B0000004FF2009F41ACF6FE173E0C8010E9406
:1023C000050441E050E065E070E0C8010E94110A98
:1023D000E62EC8010E9400046FE173E0C8010E946C
:1023E000050444E050E066E070E0C8010E94110A74
:1023F0001B012C01C8010E940004F7E0FE1508F43F
:1024000051CC21EA22162FE0320608F04BCCF12CF9
:10241000C70125E0880F991F2A95E1F7AC01475EB7
:102420005D4F5A01DA0154963C922E925397211433
:10243000310429F41C961C921E921B9716C0B10100
:1024400080E090E00E94471320E030E04AE75FE33D
:102450000E94841320E030E040E85FE30E94901483
:102460000E94FC14F501748763875101A094B09415
:10247000FAE0EF0EF11CEE0CFF1C6A2DC7010E9462
:10248000E4066B2DC70101969FCE8E159F0508F4BB
:102490007C01E0911F03F0912003EE0DFF1DB08041
:1024A000108260911F03709120036C5F7F4F61F079
:1024B000FB0101900020E9F73197AF01461B570B54
:1024C000C8010E94DF0303C0C8010E94CD038091B0
:1024D0001F0390912003FC01EE0DFF1DB0825DCE25
:1024E000B70189E193E00E942D03682FC5010E9486
:1024F000E406BFEFEB1AFB0AEAE0EE16F10409F07E
:1025000056CE64CE64E070E08FE193E00E942D032C
:10251000803309F016CC41C06FE173E0C8010E941E
:10252000050441E050E064E070E0C8010E94E10968
:10253000F82EC8010E940004FF2009F40BCC6FE1C3
:1025400073E0C8010E94050441E050E064E070E0DF
:10255000C8010E94110AE62EC8010E94000487E00B
:102560008E1508F49FCB90916E0080916E008D7F48
:1025700080936E00A0E2EA9E90011124F901E75ECB
:10258000FD4F7F01138E148E158E168E90936E0064
:102590000E94FC06F701C78E0BCB84ED90E0EDCED8
:1025A00089E193E00E9400048FE193E00C94000421
:1025B0000F931F93CF93DF93CDB7DEB72E970FB650
:1025C000F894DEBF0FBECDBF1092CC011092CB01AC
:1025D00088EE93E0A0E0B0E08093CD019093CE012F
:1025E000A093CF01B093D0018DE391E09093CA0105
:1025F0008093C9018FEF9FEF9093D6018093D5010F
:1026000064E871E08FE193E00E941F0464E871E0E8
:1026100089E193E00E941F04E9E1F2E035E00FE474
:1026200011E06AE070E04FEF5FEF21E03083168346
:102630000583178210861186128674876387158634
:10264000168652834183148A138A158A168A138E3A
:10265000148E158E168E278B8B859C85AD85BE8539
:102660008787908BA18BB28B108E118E128EB096B5
:1026700083E0E931F807D1F62E960FB6F894DEBF65
:102680000FBECDBFDF91CF911F910F910895E894B8
:1026900009C097FB3EF490958095709561957F4FAA
:1026A0008F4F9F4F9923A9F0F92F96E9BB27939558
:1026B000F695879577956795B795F111F8CFFAF468
:1026C000BB0F11F460FF1BC06F5F7F4F8F4F9F4F99
:1026D00016C0882311F096E911C0772321F09EE8F7
:1026E000872F762F05C0662371F096E8862F70E05D
:1026F00060E02AF09A95660F771F881FDAF7880F37
:102700009695879597F908950E9497130C9408144D
:102710000E94FA1338F00E94011420F0952311F062
:102720000C94F1130C94F71311240C943C140E9494
:10273000191470F3959FC1F3950F50E0551F629FD8
:10274000F001729FBB27F00DB11D639FAA27F00D0A
:10275000B11DAA1F649F6627B00DA11D661F829F31
:102760002227B00DA11D621F739FB00DA11D621F16
:10277000839FA00D611D221F749F3327A00D611D33
:10278000231F849F600D211D822F762F6A2F112415
:102790009F5750409AF0F1F088234AF0EE0FFF1F48
:1027A000BB1F661F771F881F91505040A9F79E3F9F
:1027B000510580F00C94F1130C943C145F3FE4F34A
:1027C000983ED4F3869577956795B795F795E795F5
:1027D0009F5FC1F7FE2B880F911D9695879597F9FE
:1027E000089597F99F6780E870E060E008959FEF93
:1027F00080EC089500240A94161617061806090698
:10280000089500240A941216130614060506089566
:10281000092E0394000C11F4882352F0BB0F40F4EE
:10282000BF2B11F460FF04C06F5F7F4F8F4F9F4F2E
:10283000089557FD9058440F551F59F05F3F71F0B0
:102840004795880F97FB991F61F09F3F79F0879517
:102850000895121613061406551FF2CF4695F1DFA0
:1028600008C0161617061806991FF1CF8695710530
:10287000610508940895E894BB2766277727CB0164
:1028800097F90895F999FECF92BD81BDF89A9927DD
:1028900080B50895262FF999FECF1FBA92BD81BD4C
:1028A00020BD0FB6F894FA9AF99A0FBE01960895D2
:1028B0002F923F924F925F926F927F928F929F9250
:1028C000AF92BF92CF92DF92EF92FF920F931F933E
:1028D000CF93DF93CDB7DEB7CA1BDB0B0FB6F894EF
:1028E000DEBF0FBECDBF09942A88398848885F842F
:1028F0006E847D848C849B84AA84B984C884DF80A0
:10290000EE80FD800C811B81AA81B981CE0FD11D83
:102910000FB6F894DEBF0FBECDBFED01089550583D
:10292000BB27AA270E94A7140C9408140E94FA132C
:1029300038F00E94011420F039F49F3F19F426F476
:102940000C94F7130EF4E095E7FB0C94F113E92FC8
:102950000E94191458F3BA17620773078407950782
:1029600020F079F4A6F50C943B140EF4E0950B2EB0
:10297000BA2FA02D0B01B90190010C01CA01A001D1
:102980001124FF27591B99F0593F50F4503E68F12C
:102990001A16F040A22F232F342F4427585FF3CF6D
:1029A000469537952795A795F0405395C9F77EF43E
:1029B0001F16BA0B620B730B840BBAF09150A1F087
:1029C000FF0FBB1F661F771F881FC2F70EC0BA0F0D
:1029D000621F731F841F48F4879577956795B79595
:1029E000F7959E3F08F0B0CF9395880F08F0992790
:1029F000EE0F9795879508950E94211488F09F57B0
:102A000098F0B92F9927B751B0F0E1F0660F771F12
:102A1000881F991F1AF0BA95C9F714C0B13091F008
:102A20000E943B14B1E008950C943B14672F782F5B
:102A30008827B85F39F0B93FCCF3869577956795CD
:102A4000B395D9F73EF490958095709561957F4F39
:102A50008F4F9F4F0895991B79E004C0991F9617D7
:102A600008F0961B881F7A95C9F780950895EE0F98
:102A7000FF1F0590F491E02D09940F931F93CF93BE
:102A8000DF938230910510F482E090E0E0913C0306
:102A9000F0913D0320E030E0A0E0B0E0309719F184
:102AA000408151810281138148175907C8F084176A
:102AB000950769F4109731F012960C9312971396BC
:102AC0001C9327C000933C0310933D0322C02115A3
:102AD000310519F04217530718F49A01BD01EF01AF
:102AE000DF01F801DBCF21153105F9F0281B390B87
:102AF0002430310580F48A819B816115710521F0B4
:102B0000FB019383828304C090933D0380933C0335
:102B1000FE01329644C0FE01E20FF31F81939193B0
:102B200022503109398328833AC020913A033091E9
:102B30003B03232B41F420910E0130910F01309380
:102B40003B0320933A0320910C0130910D01211594
:102B5000310541F42DB73EB740911001509111015C
:102B6000241B350BE0913A03F0913B03E217F30786
:102B7000A0F42E1B3F0B2817390778F0AC014E5FED
:102B80005F4F2417350748F04E0F5F1F50933B03EC
:102B900040933A038193919302C0E0E0F0E0CF01CB
:102BA000DF91CF911F910F910895CF93DF930097FD
:102BB00009F481C0FC01329713821282A0913C0378
:102BC000B0913D03109781F420813181820F931FD2
:102BD00020913A0330913B032817390751F5F093C0
:102BE0003B03E0933A0367C0ED0120E030E0CE17ED
:102BF000DF0740F44A815B819E0141155105F1F0E8
:102C0000EA01F5CFD383C28340815181840F951FA0
:102C1000C817D90759F488819981840F951F0296A6
:102C2000918380838A819B819383828321153105DF
:102C300029F4F0933D03E0933C033DC0E901FB839D
:102C4000EA8349915991C40FD51FEC17FD0761F430
:102C500080819181840F951F0296E9019983888371
:102C6000828193819B838A83E0E0F0E012968D91CC
:102C70009C911397009719F0FD01DC01F7CF8D911E
:102C80009C9111979D012E5F3F4F820F931F2091C2
:102C90003A0330913B032817390769F4309729F438
:102CA00010923D0310923C0302C013821282B09333
:102CB0003B03A0933A03DF91CF910895A0E0B0E0E9
:102CC000E4E6F6E10C945C14EC01009721F4CB01EE
:102CD0000E943D15B4C0FC01E60FF71F9C01225075
:102CE0003109E217F30708F4A8C0D9010D911C912E
:102CF000119706171707B0F00530110508F49BC0AF
:102D0000C80104978617970708F495C00250110967
:102D1000061B170B019311936D937C93CF010E94B7
:102D2000D51589C05B01A01AB10A4C01800E911E15
:102D3000A0913C03B0913D03612C712CE12CF12C4E
:102D4000109709F446C08D919C911197A815B9056B
:102D5000B1F56C0142E0C40ED11CCA14DB0478F159
:102D60004C018A189B08640142E0C40ED11C1296E3
:102D7000BC9012971396AC91B5E0CB16D10440F0FD
:102D8000B282A38391828082D9016D937C9309C022
:102D90000E5F1F4F800F911FF90191838083EB2DF0
:102DA000FA2FE114F10431F0D7011396FC93EE935E
:102DB000129741C0F0933D03E0933C033CC068167A
:102DC000790608F43C017D0112960D90BC91A02D6E
:102DD000B7CF80913A0390913B0388169906E1F4AE
:102DE00066167706C8F480910C0190910D0100974A
:102DF00041F48DB79EB74091100150911101841B91
:102E0000950BE817F907C8F4F0933B03E0933A03F6
:102E1000F901718360830FC0CB010E943D157C01D5
:102E2000009759F0A801BE010E942917CE010E9407
:102E3000D515C70104C0CE0102C080E090E0CDB737
:102E4000DEB7EEE00C94781481E090E0F8940C94F6
:102E5000FA19FB01DC0102C001900D924150504073
:102E6000D8F70895FB01DC0101900D920020E1F7F5
:102E70000895AEE0B0E0EFE3F7E10C9466140D893D
:102E80001E898F89988D26E02C831A83098397FFEA
:102E900002C080E090E801979E838D83AE01455E7D
:102EA0005F4F698D7A8DCE0101960E9469174D8121
:102EB0005E8157FD0AC02F813885421753070CF4F5
:102EC0009A01F801E20FF31F10822E96E4E00C94B1
:102ED0008214ABE0B0E0EFE6F7E10C9458146C011B
:102EE0007B018A01FC0117821682838181FFCCC19C
:102EF000CE0101963C01F6019381F70193FD859186
:102F000093FF81917F01882309F4BAC1853239F496
:102F100093FD859193FF81917F01853229F4B6015C
:102F200090E00E946019E7CF912C212C312CFFE119
:102F3000F315D8F08B3279F038F4803279F083329F
:102F4000A1F4232D20611DC08D3261F0803369F41E
:102F5000232D216016C0832D8260382EE32DE4607E
:102F60003E2E2AC0F32DF8601DC037FC2DC020ED89
:102F7000280F2A3040F08E32B9F436FC81C1232D5F
:102F80002064322E19C036FE06C08AE0989E200DBD
:102F90001124922E11C0EAE02E9E200D1124222E23
:102FA000F32DF0623F2E08C08C3621F4832D80680B
:102FB000382E02C0883641F4F70193FD859193FFC6
:102FC00081917F018111B3CF982F9F7D95549330CC
:102FD00028F40C5F1F4F9FE399830DC0833631F0B7
:102FE000833771F0833509F059C021C0F801808121
:102FF00089830E5F1F4F88248394912C530113C043
:103000002801F2E04F0E511CF801A080B18036FE7D
:1030100003C0692D70E002C06FEF7FEFC5010E9411
:1030200055194C018201F32DFF773F2E16C0280160
:1030300022E0420E511CF801A080B18036FE03C090
:10304000692D70E002C06FEF7FEFC5010E944A1941
:103050004C01F32DF0683F2E820133FC1BC0822D02
:1030600090E088169906B0F4B60180E290E00E94E4
:1030700060192A94F4CFF50137FC859137FE8191D0
:103080005F01B60190E00E94601921102A9421E0AE
:10309000821A91088114910471F7E8C0843611F006
:1030A000893641F5F80137FE07C060817181828160
:1030B00093810C5F1F4F08C060817181072E000C47
:1030C000880B990B0E5F1F4FF32DFF763F2E97FF56
:1030D00009C090958095709561957F4F8F4F9F4F58
:1030E000F0683F2E2AE030E0A3010E949C19882E50
:1030F000861845C0853731F4232D2F7EB22E2AE065
:1031000030E025C0932D997FB92E8F36C1F018F489
:10311000883579F0B5C0803719F0883721F0B0C014
:10312000E92FE061BE2EB4FE0DC0FB2DF460BF2E72
:1031300009C034FE0AC0292F2660B22E06C028E03E
:1031400030E005C020E130E002C020E132E0F801CB
:10315000B7FE07C060817181828193810C5F1F4F30
:1031600006C06081718180E090E00E5F1F4FA30177
:103170000E949C19882E8618FB2DFF773F2E36FE65
:103180000DC0232D2E7FA22E891458F434FE0BC0BF
:1031900032FC09C0832D8E7EA82E05C0B82CA32C2E
:1031A00003C0B82C01C0B92CA4FE0FC0FE01E80D6D
:1031B000F11D8081803321F49A2D997EA92E09C0BA
:1031C000A2FE06C0B394B39404C08A2D867809F099
:1031D000B394A3FC11C0A0FE06C0B21488F4280C5E
:1031E000922C9B180EC0B21460F4B60180E290E0FD
:1031F0000E946019B394F7CFB21418F42B1802C0D0
:10320000982C212CA4FE10C0B60180E390E00E940F
:103210006019A2FE17C0A1FC03C088E790E002C0BD
:1032200088E590E0B6010CC08A2D867859F0A1FEA1
:1032300002C08BE201C080E2A7FC8DE2B60190E003
:103240000E946019891438F4B60180E390E00E946E
:1032500060199A94F7CF8A94F301E80DF11D8081EB
:10326000B60190E00E9460198110F5CF222009F488
:1032700042CEB60180E290E00E9460192A94F6CF17
:10328000F6018681978102C08FEF9FEF2B96E2E1D6
:103290000C947414FC010590615070400110D8F733
:1032A000809590958E0F9F1F0895FC01615070408E
:1032B00001900110D8F7809590958E0F9F1F08956B
:1032C0000F931F93CF93DF93FB01238121FD03C055
:1032D0008FEF9FEF2CC022FF16C0468157812481BB
:1032E00035814217530744F4A081B1819D012F5FBE
:1032F0003F4F318320838C93268137812F5F3F4F4F
:103300003783268314C08B01EC01FB010084F18517
:10331000E02D0995892BE1F6D80116968D919C91A7
:103320001797019617969C938E931697CE01DF916F
:10333000CF911F910F910895FA01AA27283051F1DA
:10334000203181F1E8946F936E7F6E5F7F4F8F4FD6
:103350009F4FAF4FB1E03ED0B4E03CD0670F781F35
:10336000891F9A1FA11D680F791F8A1F911DA11D1A
:103370006A0F711D811D911DA11D20D009F4689453
:103380003F912AE0269F11243019305D3193DEF6FB
:10339000CF010895462F4770405D4193B3E00FD0B1
:1033A000C9F7F6CF462F4F70405D4A3318F0495D9C
:1033B00031FD4052419302D0A9F7EACFB4E0A6957F
:1033C0009795879577956795BA95C9F700976105A1
:1033D000710508959B01AC010A2E069457954795F7
:1033E00037952795BA95C9F7620F731F841F951FEC
:1033F000A01D089510E0C6EFD0E004C0FE010E94B9
:0E34000037152196C73FD107C9F7F894FFCFC3
:10340E00FFFFFFFF00E100000000000000003E0390
:10341E00800009000A00050004000D0006000B00E4
:10342E000C0016001700010000001200130014001B
:10343E00150000C1808100000000000000E301556E
:10344E0002D702F9010402FF02DB02000000002194
:10345E00031D03242530345824256C7524256C75E2
:10346E0024256C7524256C7524256C7524256C75A6
:10347E0024256C7524256C750D00213030253032D5
:10348E005830300D00212530345830300D003E2597
:10349E003034580D00253031306C750D0025303527
:1034AE00750D003F3F3F0034302530325825303205
:0A34BE00580D0042422D343030005A
:00000001FF
