:1070000055C000006EC000006CC000006AC00000E7
:1070100068C0000066C0000064C0000062C00000DC
:1070200060C000005EC00000C2C400005AC0000082
:1070300058C0000056C0000054C0000052C00000FC
:1070400050C00000D7C000004CC000004AC0000083
:1070500048C0000046C0000044C0000042C000001C
:1070600040C000003EC000003CC000003AC000002C
:1070700038C0000036C0000034C0000032C000003C
:1070800030C000002EC000002CC000002AC000004C
:1070900028C0000026C0000024C0000022C000005C
:1070A00020C000001EC000001CC0000011241FBE34
:1070B000CFEFDAE0DEBFCDBF11E0A0E0B1E0E2ED5E
:1070C000FEE702C005900D92A63AB107D9F721E07C
:1070D000A6EAB1E001C01D92AC3BB207E1F75AD37A
:1070E000F6C68ECF84E08093E9008091E80085FDAC
:1070F0000DC08091E8008B778093E8008091E800D4
:1071000082FDF3CF8EB38111F9CF02C08091F100DF
:10711000089593E09093E9009091E80095FF0BC0EB
:107120008093F10085B185B984E690E09093AB013E
:107130008093AA0108959091E8009E779093E800CB
:107140009091E80090FDECCF9EB39111F9CF089596
:10715000F89410926F0010928100109285001092A6
:10716000840081E085BF15BE85B185B985B185B93B
:1071700085B185B90C94000008952091B00130913B
:10718000B1012F5F3F4F3093B1012093B00185B122
:1071900085B9089584B7877F84BF0FB6F894A89502
:1071A00080916000886180936000109260000FBE43
:1071B00090E880E00FB6F8949093610080936100AE
:1071C0000FBE81E085BF82E085BFE1E6F0E09083FD
:1071D000108295B195B995B195B995B195B91092BF
:1071E00089009AEF9093880080936F0083E08093EA
:1071F0008100C4C31F920F920FB60F9211242F93D8
:107200008F939F93EF93FF931092850010928400C9
:107210008091AA019091AB01009749F0019790935A
:10722000AB018093AA01892B11F485B185B98091B6
:10723000A8019091A901009749F001979093A901A5
:107240008093A801892B11F485B185B9E0E0F0E0C5
:1072500085919491019649F08091A6019091A701A2
:1072600001969093A7018093A601FF91EF919F91C2
:107270008F912F910F900FBE0F901F90189542E0A5
:1072800061EC82E00AD342E161E883E006D342E1A7
:1072900060E884E002C38091B401982F9F77913217
:1072A00039F59091B501903291F0913209F5813A1A
:1072B000F9F48091E800877F8093E80067E070E050
:1072C00083E091E025D48091E8008B770FC0813274
:1072D00079F48091E800877F8093E80067E070E0B0
:1072E00083E091E079D48091E8008E778093E80084
:1072F00008956F927F928F929F92AF92BF92CF929A
:10730000DF92EF92FF920F931F93CF93DF9384E06E
:107310008093E9008091E80082FF2DC285B185B994
:1073200084E690E09093A9018093A801DBDEC82F4A
:10733000853481F48CE49DE19093A7018093A601AC
:1073400007B600FCFDCFF999FECF81E1809357008D
:10735000E89503C0843521F4C5DE8DE0DADEE2C1B4
:107360008C34D9F38035C9F3843721F484E4D1DE39
:1073700080E0F4CF813611F489E5F0CF813491F4C7
:10738000B1DEC82FAFDE90E0880F991F2C2F30E0C0
:10739000322F2227330F822B932B092E000CAA0B9E
:1073A000BB0B94C1803711F483E5D8CF833549F402
:1073B000CCE9D1E01C2F195F8991ABDE1C13FCCF07
:1073C000B1C1863521F481E3A4DE80E3C7CF8337E2
:1073D00031F487E89EDE85E99CDE8EE1BFCF8536FD
:1073E000B9F4E0E0F0E083E095E080935700E895A1
:1073F00007B600FCFDCF90935700E89507B600FC58
:10740000FDCFE058FF4FE11520E7F20771F7A5CF58
:10741000823719F4E1E0F0E00EC0863419F4E0E0C0
:10742000F0E009C08E3419F4E3E0F0E004C08135E7
:1074300039F4E2E0F0E089E08093570084918ECF48
:10744000823631F489E565DE80E063DE80E886CF50
:10745000823419F0873609F0D1C01092A70110923A
:10746000A60140DE082F3EDED82F3CDE182F8BEB26
:10747000810F823010F08FE371CF2D2F30E0302B51
:1074800010926F00C73609F043C081E18093570026
:10749000E895E90100E0BB24B394209709F4AAC061
:1074A000C090AC01D090AD01E090AE01F090AF0182
:1074B0001634B9F4E02FF0E0EC29FD29849129DE9F
:1074C000002369F082E0C80ED11CE11CF11CC092BF
:1074D000AC01D092AD01E092AE01F092AF010B256C
:1074E00015C0D701C601B695A79597958795D9D4AC
:1074F00010DEE2E0CE0ED11CE11CF11CC092AC010A
:10750000D092AD01E092AE01F092AF012197C5CFCC
:107510008090AC019090AD01A090AE01B090AF0111
:10752000163441F483E0F40180935700E89507B6E0
:1075300000FCFDCFE901712C00E0662463942097E4
:1075400009F44CC0163431F5002301F1C090AC01B0
:10755000D090AD01E090AE01F090AF01C3DD272DDA
:1075600030E0382BF601090160925700E8951124AC
:10757000F2E0CF0ED11CE11CF11CC092AC01D09204
:10758000AD01E092AE01F092AF0102C0ABDD782E0A
:10759000062522C0A7DD682F8091AC019091AD0136
:1075A000A091AE01B091AF01B695A795979587953B
:1075B00080D48091AC019091AD01A091AE01B091C9
:1075C000AF010296A11DB11D8093AC019093AD0156
:1075D000A093AE01B093AF012197B1CF163441F41F
:1075E00085E0F40180935700E89507B600FCFDCFD5
:1075F0008DE08FDD82E080936F0094C0833471F45E
:10760000C091AC01D091AD016DDD90E021E0FE01B3
:107610000C0120935700E89511249FCE833601F585
:10762000C090AC01D090AD01E090AE01F090AF0100
:1076300059DDF601E16090E021E00C012093570054
:10764000E8951124F2E0CF0ED11CE11CF11CC09290
:10765000AC01D092AD01E092AE01F092AF017DCECF
:107660008D3661F4E091AC01F091AD0185E080933D
:107670005700E89507B600FCFDCF6FCE823551F478
:10768000E091AC01F091AD01C591D4918D2F41DD18
:107690008C2F64CE843419F525DD682F8091AC01E0
:1076A0009091AD01A091AE01B091AF01B695A795B3
:1076B00097958795FED38091AC019091AD01A091F3
:1076C000AE01B091AF010296A11DB11D8093AC0136
:1076D0009093AD01A093AE01B093AF013ECE84363E
:1076E000F1F4C090AC01D090AD01E090AE01F0900B
:1076F000AF01D701C601B695A79597958795D1D3C8
:1077000008DD22E0C20ED11CE11CF11CC092AC01CC
:10771000D092AD01E092AE01F092AF0103C08B3187
:1077200009F0A9CE83E08093E9009091E800809170
:10773000E8008E778093E80095FD11C08091E80005
:1077400080FD04C08EB38111F9CF15C08091E8008F
:107750008E778093E80003C08EB3882361F0809118
:10776000E80080FFF9CF84E08093E9008091E80091
:107770008B778093E800DF91CF911F910F91FF905D
:10778000EF90DF90CF90BF90AF909F908F907F90C1
:107790006F9008952091000830910108109201081F
:1077A0001092000884B714BE0FB6F894A895909173
:1077B0006000986190936000109260000FBE81FDA0
:1077C0001AC080FF09C0E0E0F0E0459154914F3FBE
:1077D0005F4F11F0BDDC0FC083FF0DC08091000131
:1077E000909101012817390731F0E0E0F0E0859130
:1077F0009491019679F7CEDC78941092A7011092BB
:10780000A60180910201882369F073DD38D380914D
:10781000A6019091A70181349F4110F010920201BE
:10782000ACDCEFCF8091E00081608093E00090DCE1
:1078300080E090E00895292F30E02230310559F0A2
:107840002330310569F021303105F9F482E190E00F
:107850002AE831E01EC08EE390E02CE431E019C04C
:10786000882349F0813061F0823079F488E190E03A
:107870002AE031E00EC084E090E028E431E009C065
:1078800082E290E024E231E004C080E090E020E079
:1078900030E0FA013183208308958093E9008091DC
:1078A000EB0081608093EB001092ED006093EC00A0
:1078B0004093ED008091EE00881F8827881F08956F
:1078C0008091B40188238CF403C08EB38823B1F077
:1078D0008091E80082FFF9CF8091E8008B77809358
:1078E000E80008958EB3882349F08091E80080FF76
:1078F000F9CF8091E8008E778093E8000895EF92A9
:10790000FF920F931F9346D04DD008ED10E0F80181
:1079100080818F77808380818068808380818F7D64
:10792000808319BC1EBA1092B20180EEE82EF12CB1
:10793000F70180818B7F8083F80180818160808363
:1079400080E060E042E0A9DFE1EEF0E080818E7F40
:107950008083E2EEF0E080818160808380818860B6
:107960008083F70180818E7F8083F8018081806130
:1079700080831F910F91FF90EF900895E7EDF0E065
:107980008081816080838AE482BF81E08093B3013B
:10799000B6CF0895E8EDF0E080818E7F808310926D
:1079A000E20008951092DA001092E10008951F920B
:1079B0000F920FB60F9211242F933F934F935F9323
:1079C0006F937F938F939F93AF93BF93EF93FF93A7
:1079D0008091DA0080FF1BC08091D80080FF17C023
:1079E0008091DA008E7F8093DA008091D90080FF49
:1079F0000BC080E189BD82E189BD09B400FEFDCFE5
:107A000081E08EBB3BD203C019BC1EBA37D2809135
:107A1000E10080FF17C08091E20080FF13C08091D9
:107A2000E2008E7F8093E2008091E200806180938B
:107A3000E2008091D80080628093D80019BC85E074
:107A40008EBB1CD28091E10084FF2CC08091E200AB
:107A500084FF28C080E189BD82E189BD09B400FEB0
:107A6000FDCF8091D8008F7D8093D8008091E10078
:107A70008F7E8093E1008091E2008F7E8093E20010
:107A80008091E20081608093E2008091B2018823BE
:107A900031F48091E30087FD02C081E001C084E001
:107AA0008EBBECD18091E10083FF21C08091E20088
:107AB00083FF1DC08091E100877F8093E10082E019
:107AC0008EBB1092B2018091E1008E7F8093E10025
:107AD0008091E2008E7F8093E2008091E2008061DD
:107AE0008093E20080E060E042E0D7DEC7D1FF9102
:107AF000EF91BF91AF919F918F917F916F915F9126
:107B00004F913F912F910F900FBE0F901F9018959E
:107B10009C014091BA015091BB014617570718F4D8
:107B2000F90190E044C06115710511F0AB01F8CF87
:107B30008091E8008E778093E80040E050E0F0CF3D
:107B40008EB3882309F444C0853009F443C0809182
:107B5000E80083FF02C081E008958091E80082FD83
:107B600031C08091E80080FF22C08091F3009091A5
:107B7000F200782F60E0292F30E0262B372B07C04A
:107B800081918093F100415050402F5F3F4F41154C
:107B9000510519F02830310598F390E0283031056F
:107BA00009F491E08091E8008E778093E800411518
:107BB000510531F6992321F605C08EB3882341F093
:107BC000853041F08091E80082FFF7CF80E0089592
:107BD00082E0089583E008959C016115710529F400
:107BE0008091E8008B778093E800F90126C08EB37E
:107BF000882391F1853091F18091E80083FF02C0E4
:107C000081E008958091E80082FFF1CF06C0809165
:107C1000F10081936150704059F02091F300809100
:107C2000F200322F20E090E0822B932B892B79F702
:107C30008091E8008B778093E80061157105B9F6B3
:107C400005C08EB3882341F0853041F08091E80073
:107C500080FFF7CF80E0089582E0089583E00895E3
:107C60000F931F93DF93CF9300D0CDB7DEB7E4EB34
:107C7000F1E08091F100819381E0EC3BF807C9F7D6
:107C80000ADB8091E80083FFE4C08091B401909109
:107C9000B501953009F46DC0963040F4913081F112
:107CA000913070F0933009F0D4C02AC0983009F4B4
:107CB000A3C0993009F4B2C0963009F0CAC07CC0A4
:107CC000803809F4C6C0823809F0C3C08091B80179
:107CD00087708093E9008091EB001092E900209179
:107CE000E800277F2093E80090E025E096958795AF
:107CF0002A95E1F781708093F1001092F10087C01E
:107D0000882319F0823009F0A4C08F71823009F005
:107D1000A0C08091B601882331F52091B801277069
:107D200009F497C02093E9008091EB0080FF1BC00D
:107D3000933021F48091EB00806213C08091EB00BE
:107D400080618093EB0081E090E002C0880F991F72
:107D50002A95E2F78093EA001092EA008091EB0006
:107D600088608093EB001092E9008091E800877FA3
:107D700051C0882309F06DC01091B6011F770FB76D
:107D8000F8948091E800877F8093E80099DD8091E6
:107D9000E80080FFFCCF8091E3008078812B809306
:107DA000E30080688093E300112311F482E001C0B6
:107DB00083E08EBB0FBF4DC08058823008F049C0B1
:107DC0008091B6019091B7016091B801AE014F5F0B
:107DD0005F4F31DDBC01009709F43BC08091E800A2
:107DE000877F8093E80089819A8192DE8091E80004
:107DF0008B778093E8002DC0803859F58091E8009A
:107E0000877F8093E8008091B2018093F100809198
:107E1000E8008E778093E80053DD1BC08823C9F407
:107E20009091B6019230A8F48091E800877F80930A
:107E3000E8009093B20144DD8091B201882331F4CF
:107E40008091E30087FD02C081E001C084E08EBB29
:107E500016DA8091E80083FF0AC08091EB0080620F
:107E60008093EB008091E800877F8093E8000F907B
:107E70000F90CF91DF911F910F91089508951F9357
:107E80008EB3882361F01091E9001092E90080918F
:107E9000E80083FF01C0E4DE17701093E9001F9132
:107EA0000895F999FECF92BD81BDF89A992780B5C2
:107EB0000895262FF999FECF1FBA92BD81BD20BD2E
:107EC0000FB6F894FA9AF99A0FBE01960895F894AD
:027ED000FFCFE2
:107ED20077770100000000000008180341007200DB
:107EE2006400750069006E006F0020004C004C00B9
:107EF2004300000022034100720064007500690023
:107F02006E006F0020004D006900630072006F0078
:107F120020002000200000000403090409023E00A2
:107F2200020100803209040000010202010005245E
:107F3200001001042402040524060001070582033F
:107F42000800FF09040100020A00000007050402FC
:107F52001000010705830210000112011001020046
:107F6200000841233700010002010001434154454A
:067F720052494E410000DF
:040000030000700089
:00000001FF
